{
  "_format": "hh-sol-artifact-1",
  "contractName": "AutoLimitXSwapReciever",
  "sourceName": "contracts/AutoLimitXSwapReciever.sol",
  "abi": [
    {
      "inputs": [
        {
          "internalType": "contract IConnext",
          "name": "_connext",
          "type": "address"
        },
        {
          "internalType": "contract ISwapRouter",
          "name": "_swapRouter",
          "type": "address"
        },
        {
          "internalType": "contract LinkTokenInterface",
          "name": "_link",
          "type": "address"
        },
        {
          "internalType": "contract KeeperRegistrarInterface",
          "name": "_registrar",
          "type": "address"
        }
      ],
      "stateMutability": "nonpayable",
      "type": "constructor"
    },
    {
      "inputs": [
        {
          "internalType": "int256",
          "name": "",
          "type": "int256"
        },
        {
          "internalType": "int256",
          "name": "",
          "type": "int256"
        }
      ],
      "name": "CONDITION_NOT_MET",
      "type": "error"
    },
    {
      "anonymous": false,
      "inputs": [
        {
          "indexed": true,
          "internalType": "uint256",
          "name": "DepositId",
          "type": "uint256"
        },
        {
          "indexed": true,
          "internalType": "string",
          "name": "actionType",
          "type": "string"
        },
        {
          "indexed": false,
          "internalType": "bool",
          "name": "isActive",
          "type": "bool"
        },
        {
          "indexed": true,
          "internalType": "address",
          "name": "author",
          "type": "address"
        },
        {
          "indexed": false,
          "internalType": "uint256",
          "name": "timestamp",
          "type": "uint256"
        }
      ],
      "name": "Action",
      "type": "event"
    },
    {
      "stateMutability": "payable",
      "type": "fallback"
    },
    {
      "inputs": [
        {
          "internalType": "address",
          "name": "",
          "type": "address"
        },
        {
          "internalType": "uint256",
          "name": "",
          "type": "uint256"
        }
      ],
      "name": "DepositsOf",
      "outputs": [
        {
          "internalType": "uint256",
          "name": "",
          "type": "uint256"
        }
      ],
      "stateMutability": "view",
      "type": "function"
    },
    {
      "inputs": [],
      "name": "WETH",
      "outputs": [
        {
          "internalType": "address",
          "name": "",
          "type": "address"
        }
      ],
      "stateMutability": "view",
      "type": "function"
    },
    {
      "inputs": [],
      "name": "activeDepositCounter",
      "outputs": [
        {
          "internalType": "uint256",
          "name": "",
          "type": "uint256"
        }
      ],
      "stateMutability": "view",
      "type": "function"
    },
    {
      "inputs": [
        {
          "internalType": "uint256",
          "name": "",
          "type": "uint256"
        }
      ],
      "name": "authorOf",
      "outputs": [
        {
          "internalType": "address",
          "name": "",
          "type": "address"
        }
      ],
      "stateMutability": "view",
      "type": "function"
    },
    {
      "inputs": [
        {
          "internalType": "int256",
          "name": "_price",
          "type": "int256"
        }
      ],
      "name": "changePrice",
      "outputs": [],
      "stateMutability": "nonpayable",
      "type": "function"
    },
    {
      "inputs": [
        {
          "internalType": "bytes",
          "name": "checkData",
          "type": "bytes"
        }
      ],
      "name": "checkUpkeep",
      "outputs": [
        {
          "internalType": "bool",
          "name": "upkeepNeeded",
          "type": "bool"
        },
        {
          "internalType": "bytes",
          "name": "performData",
          "type": "bytes"
        }
      ],
      "stateMutability": "view",
      "type": "function"
    },
    {
      "inputs": [],
      "name": "connext",
      "outputs": [
        {
          "internalType": "contract IConnext",
          "name": "",
          "type": "address"
        }
      ],
      "stateMutability": "view",
      "type": "function"
    },
    {
      "inputs": [
        {
          "internalType": "address",
          "name": "_from",
          "type": "address"
        },
        {
          "internalType": "address",
          "name": "_to",
          "type": "address"
        },
        {
          "internalType": "uint256",
          "name": "_amount",
          "type": "uint256"
        },
        {
          "internalType": "int256",
          "name": "_price",
          "type": "int256"
        },
        {
          "internalType": "address",
          "name": "_fromToken",
          "type": "address"
        },
        {
          "internalType": "address",
          "name": "_toToken",
          "type": "address"
        },
        {
          "internalType": "uint256",
          "name": "_toChain",
          "type": "uint256"
        },
        {
          "internalType": "uint32",
          "name": "destinationDomain",
          "type": "uint32"
        },
        {
          "internalType": "uint256",
          "name": "relayerFee",
          "type": "uint256"
        },
        {
          "internalType": "address",
          "name": "_destinationContractAddress",
          "type": "address"
        }
      ],
      "name": "createDeposit",
      "outputs": [
        {
          "internalType": "bool",
          "name": "",
          "type": "bool"
        }
      ],
      "stateMutability": "payable",
      "type": "function"
    },
    {
      "inputs": [
        {
          "internalType": "uint256",
          "name": "DepositId",
          "type": "uint256"
        },
        {
          "internalType": "address",
          "name": "_from",
          "type": "address"
        }
      ],
      "name": "deleteDeposit",
      "outputs": [
        {
          "internalType": "bool",
          "name": "",
          "type": "bool"
        }
      ],
      "stateMutability": "nonpayable",
      "type": "function"
    },
    {
      "inputs": [
        {
          "internalType": "address",
          "name": "_from",
          "type": "address"
        },
        {
          "internalType": "address",
          "name": "_to",
          "type": "address"
        },
        {
          "internalType": "uint256",
          "name": "_amount",
          "type": "uint256"
        },
        {
          "internalType": "int256",
          "name": "_price",
          "type": "int256"
        },
        {
          "internalType": "address",
          "name": "_fromToken",
          "type": "address"
        },
        {
          "internalType": "address",
          "name": "_toToken",
          "type": "address"
        },
        {
          "internalType": "uint256",
          "name": "_toChain",
          "type": "uint256"
        },
        {
          "internalType": "uint32",
          "name": "destinationDomain",
          "type": "uint32"
        },
        {
          "internalType": "uint256",
          "name": "relayerFee",
          "type": "uint256"
        },
        {
          "internalType": "address",
          "name": "_destinationContractAddress",
          "type": "address"
        }
      ],
      "name": "executeLimitOrder",
      "outputs": [],
      "stateMutability": "payable",
      "type": "function"
    },
    {
      "inputs": [
        {
          "internalType": "address",
          "name": "_from",
          "type": "address"
        },
        {
          "internalType": "address",
          "name": "_to",
          "type": "address"
        },
        {
          "internalType": "uint256[]",
          "name": "_amounts",
          "type": "uint256[]"
        },
        {
          "internalType": "address",
          "name": "_fromToken",
          "type": "address"
        },
        {
          "internalType": "address[]",
          "name": "_toTokens",
          "type": "address[]"
        },
        {
          "internalType": "uint256",
          "name": "_toChain",
          "type": "uint256"
        },
        {
          "internalType": "uint32",
          "name": "_destinationDomain",
          "type": "uint32"
        },
        {
          "internalType": "uint256",
          "name": "relayerFee",
          "type": "uint256"
        },
        {
          "internalType": "address",
          "name": "_destinationContractAddress",
          "type": "address"
        }
      ],
      "name": "executeMultipleOrderToMany",
      "outputs": [],
      "stateMutability": "payable",
      "type": "function"
    },
    {
      "inputs": [
        {
          "internalType": "address",
          "name": "_from",
          "type": "address"
        },
        {
          "internalType": "address",
          "name": "_to",
          "type": "address"
        },
        {
          "internalType": "uint256[]",
          "name": "_amounts",
          "type": "uint256[]"
        },
        {
          "internalType": "address[]",
          "name": "_fromTokens",
          "type": "address[]"
        },
        {
          "internalType": "address",
          "name": "_toToken",
          "type": "address"
        },
        {
          "internalType": "uint256",
          "name": "_toChain",
          "type": "uint256"
        },
        {
          "internalType": "uint32",
          "name": "_destinationDomain",
          "type": "uint32"
        },
        {
          "internalType": "uint256",
          "name": "relayerFee",
          "type": "uint256"
        },
        {
          "internalType": "address",
          "name": "_destinationContractAddress",
          "type": "address"
        }
      ],
      "name": "executeMultipleOrderToOne",
      "outputs": [],
      "stateMutability": "payable",
      "type": "function"
    },
    {
      "inputs": [
        {
          "internalType": "address",
          "name": "_from",
          "type": "address"
        },
        {
          "internalType": "address",
          "name": "_to",
          "type": "address"
        },
        {
          "internalType": "uint256",
          "name": "_amount",
          "type": "uint256"
        },
        {
          "internalType": "address",
          "name": "_fromToken",
          "type": "address"
        },
        {
          "internalType": "address",
          "name": "_toToken",
          "type": "address"
        },
        {
          "internalType": "uint256",
          "name": "_toChain",
          "type": "uint256"
        },
        {
          "internalType": "uint32",
          "name": "destinationDomain",
          "type": "uint32"
        },
        {
          "internalType": "uint256",
          "name": "relayerFee",
          "type": "uint256"
        },
        {
          "internalType": "address",
          "name": "_destinationContractAddress",
          "type": "address"
        }
      ],
      "name": "executeOrder",
      "outputs": [],
      "stateMutability": "payable",
      "type": "function"
    },
    {
      "inputs": [],
      "name": "getDeletedDeposit",
      "outputs": [
        {
          "components": [
            {
              "internalType": "uint256",
              "name": "DepositId",
              "type": "uint256"
            },
            {
              "internalType": "address",
              "name": "from",
              "type": "address"
            },
            {
              "internalType": "address",
              "name": "to",
              "type": "address"
            },
            {
              "internalType": "uint256",
              "name": "amount",
              "type": "uint256"
            },
            {
              "internalType": "int256",
              "name": "price",
              "type": "int256"
            },
            {
              "internalType": "address",
              "name": "fromToken",
              "type": "address"
            },
            {
              "internalType": "address",
              "name": "toToken",
              "type": "address"
            },
            {
              "internalType": "uint256",
              "name": "toChain",
              "type": "uint256"
            },
            {
              "internalType": "bool",
              "name": "isActive",
              "type": "bool"
            },
            {
              "internalType": "uint256",
              "name": "created",
              "type": "uint256"
            },
            {
              "internalType": "uint256",
              "name": "updated",
              "type": "uint256"
            }
          ],
          "internalType": "struct AutoLimitXSwapReciever.DepositStruct[]",
          "name": "",
          "type": "tuple[]"
        }
      ],
      "stateMutability": "view",
      "type": "function"
    },
    {
      "inputs": [],
      "name": "getDeposits",
      "outputs": [
        {
          "components": [
            {
              "internalType": "uint256",
              "name": "DepositId",
              "type": "uint256"
            },
            {
              "internalType": "address",
              "name": "from",
              "type": "address"
            },
            {
              "internalType": "address",
              "name": "to",
              "type": "address"
            },
            {
              "internalType": "uint256",
              "name": "amount",
              "type": "uint256"
            },
            {
              "internalType": "int256",
              "name": "price",
              "type": "int256"
            },
            {
              "internalType": "address",
              "name": "fromToken",
              "type": "address"
            },
            {
              "internalType": "address",
              "name": "toToken",
              "type": "address"
            },
            {
              "internalType": "uint256",
              "name": "toChain",
              "type": "uint256"
            },
            {
              "internalType": "bool",
              "name": "isActive",
              "type": "bool"
            },
            {
              "internalType": "uint256",
              "name": "created",
              "type": "uint256"
            },
            {
              "internalType": "uint256",
              "name": "updated",
              "type": "uint256"
            }
          ],
          "internalType": "struct AutoLimitXSwapReciever.DepositStruct[]",
          "name": "",
          "type": "tuple[]"
        }
      ],
      "stateMutability": "view",
      "type": "function"
    },
    {
      "inputs": [],
      "name": "getLatestPrice",
      "outputs": [
        {
          "internalType": "int256",
          "name": "",
          "type": "int256"
        }
      ],
      "stateMutability": "view",
      "type": "function"
    },
    {
      "inputs": [],
      "name": "honeySwapRouter2",
      "outputs": [
        {
          "internalType": "contract IUniswapV2Router02",
          "name": "",
          "type": "address"
        }
      ],
      "stateMutability": "view",
      "type": "function"
    },
    {
      "inputs": [],
      "name": "i_link",
      "outputs": [
        {
          "internalType": "contract LinkTokenInterface",
          "name": "",
          "type": "address"
        }
      ],
      "stateMutability": "view",
      "type": "function"
    },
    {
      "inputs": [],
      "name": "i_registrar",
      "outputs": [
        {
          "internalType": "contract KeeperRegistrarInterface",
          "name": "",
          "type": "address"
        }
      ],
      "stateMutability": "view",
      "type": "function"
    },
    {
      "inputs": [],
      "name": "inactiveDepositCounter",
      "outputs": [
        {
          "internalType": "uint256",
          "name": "",
          "type": "uint256"
        }
      ],
      "stateMutability": "view",
      "type": "function"
    },
    {
      "inputs": [],
      "name": "out",
      "outputs": [
        {
          "internalType": "uint256",
          "name": "",
          "type": "uint256"
        }
      ],
      "stateMutability": "view",
      "type": "function"
    },
    {
      "inputs": [],
      "name": "owner",
      "outputs": [
        {
          "internalType": "address",
          "name": "",
          "type": "address"
        }
      ],
      "stateMutability": "view",
      "type": "function"
    },
    {
      "inputs": [
        {
          "internalType": "bytes",
          "name": "performData",
          "type": "bytes"
        }
      ],
      "name": "performUpkeep",
      "outputs": [],
      "stateMutability": "nonpayable",
      "type": "function"
    },
    {
      "inputs": [],
      "name": "poolFee",
      "outputs": [
        {
          "internalType": "uint24",
          "name": "",
          "type": "uint24"
        }
      ],
      "stateMutability": "view",
      "type": "function"
    },
    {
      "inputs": [],
      "name": "price",
      "outputs": [
        {
          "internalType": "int256",
          "name": "",
          "type": "int256"
        }
      ],
      "stateMutability": "view",
      "type": "function"
    },
    {
      "inputs": [
        {
          "internalType": "address",
          "name": "_RouterAddress",
          "type": "address"
        }
      ],
      "name": "setHoneySwapRouter2",
      "outputs": [],
      "stateMutability": "nonpayable",
      "type": "function"
    },
    {
      "inputs": [
        {
          "internalType": "address",
          "name": "wethAddress",
          "type": "address"
        }
      ],
      "name": "setWethAddress",
      "outputs": [],
      "stateMutability": "nonpayable",
      "type": "function"
    },
    {
      "inputs": [
        {
          "internalType": "uint256",
          "name": "DepositId",
          "type": "uint256"
        }
      ],
      "name": "showDeposit",
      "outputs": [
        {
          "components": [
            {
              "internalType": "uint256",
              "name": "DepositId",
              "type": "uint256"
            },
            {
              "internalType": "address",
              "name": "from",
              "type": "address"
            },
            {
              "internalType": "address",
              "name": "to",
              "type": "address"
            },
            {
              "internalType": "uint256",
              "name": "amount",
              "type": "uint256"
            },
            {
              "internalType": "int256",
              "name": "price",
              "type": "int256"
            },
            {
              "internalType": "address",
              "name": "fromToken",
              "type": "address"
            },
            {
              "internalType": "address",
              "name": "toToken",
              "type": "address"
            },
            {
              "internalType": "uint256",
              "name": "toChain",
              "type": "uint256"
            },
            {
              "internalType": "bool",
              "name": "isActive",
              "type": "bool"
            },
            {
              "internalType": "uint256",
              "name": "created",
              "type": "uint256"
            },
            {
              "internalType": "uint256",
              "name": "updated",
              "type": "uint256"
            }
          ],
          "internalType": "struct AutoLimitXSwapReciever.DepositStruct",
          "name": "",
          "type": "tuple"
        }
      ],
      "stateMutability": "view",
      "type": "function"
    },
    {
      "inputs": [
        {
          "internalType": "address",
          "name": "_user",
          "type": "address"
        }
      ],
      "name": "showDepositsOfUser",
      "outputs": [
        {
          "internalType": "uint256[]",
          "name": "",
          "type": "uint256[]"
        }
      ],
      "stateMutability": "view",
      "type": "function"
    },
    {
      "inputs": [
        {
          "internalType": "address",
          "name": "_token",
          "type": "address"
        },
        {
          "internalType": "uint256",
          "name": "amountIn",
          "type": "uint256"
        }
      ],
      "name": "swapExactInputSingle",
      "outputs": [
        {
          "internalType": "uint256",
          "name": "amountOut",
          "type": "uint256"
        }
      ],
      "stateMutability": "nonpayable",
      "type": "function"
    },
    {
      "inputs": [],
      "name": "swapRouter",
      "outputs": [
        {
          "internalType": "contract ISwapRouter",
          "name": "",
          "type": "address"
        }
      ],
      "stateMutability": "view",
      "type": "function"
    },
    {
      "inputs": [
        {
          "internalType": "bytes32",
          "name": "_transferId",
          "type": "bytes32"
        },
        {
          "internalType": "uint256",
          "name": "_amount",
          "type": "uint256"
        },
        {
          "internalType": "address",
          "name": "_asset",
          "type": "address"
        },
        {
          "internalType": "address",
          "name": "_originSender",
          "type": "address"
        },
        {
          "internalType": "uint32",
          "name": "_origin",
          "type": "uint32"
        },
        {
          "internalType": "bytes",
          "name": "_callData",
          "type": "bytes"
        }
      ],
      "name": "xReceive",
      "outputs": [
        {
          "internalType": "bytes",
          "name": "",
          "type": "bytes"
        }
      ],
      "stateMutability": "nonpayable",
      "type": "function"
    },
    {
      "inputs": [
        {
          "internalType": "address",
          "name": "recipient",
          "type": "address"
        },
        {
          "internalType": "uint32",
          "name": "destinationDomain",
          "type": "uint32"
        },
        {
          "internalType": "address",
          "name": "tokenAddress",
          "type": "address"
        },
        {
          "internalType": "uint256",
          "name": "amount",
          "type": "uint256"
        },
        {
          "internalType": "uint256",
          "name": "slippage",
          "type": "uint256"
        },
        {
          "internalType": "uint256",
          "name": "relayerFee",
          "type": "uint256"
        },
        {
          "internalType": "address",
          "name": "_destinationContractAddress",
          "type": "address"
        },
        {
          "internalType": "address",
          "name": "_toToken",
          "type": "address"
        }
      ],
      "name": "xTransfer",
      "outputs": [],
      "stateMutability": "payable",
      "type": "function"
    },
    {
      "stateMutability": "payable",
      "type": "receive"
    }
  ],
  "bytecode": "0x6101006040526003805463ffffffff60a01b191663022de76960a21b1790556000600581905560068190556007556064600c553480156200003f57600080fd5b5060405162002dc238038062002dc28339810160408190526200006291620000b0565b6001600160a01b0393841660805291831660a052600480546001600160a01b03191633179055821660c0521660e05262000118565b6001600160a01b0381168114620000ad57600080fd5b50565b60008060008060808587031215620000c757600080fd5b8451620000d48162000097565b6020860151909450620000e78162000097565b6040860151909350620000fa8162000097565b60608601519092506200010d8162000097565b939692955090935050565b60805160a05160c05160e051612c31620001916000396000818161029f01528181611bf50152611cbd0152600081816103cf0152611c3501526000818161052c01528181611777015281816117f6015281816118a601526119390152600081816105730152818161156b01526116240152612c316000f3fe6080604052600436106101d95760003560e01c8063a035b1fe11610101578063c31c9c071161009a578063e76575c01161006c578063e76575c0146105a8578063e8299ed3146105d5578063f040976c146105f5578063fc17c8fa14610615578063fd614f411461062b57005b8063c31c9c071461051a578063caa4654d1461054e578063de4b054814610561578063e23ed0b51461059557005b8063a5dc83d6116100d3578063a5dc83d6146104a4578063a96e2423146104c4578063ad5c4648146104e4578063b2a1449b1461050457005b8063a035b1fe1461043b578063a235efcb14610451578063a26056fc14610464578063a33f83f01461049157005b8063571733ab116101735780637d253aff116101455780637d253aff146103bd5780638900d7be146103f15780638da5cb5b146104065780638e15f4731461042657005b8063571733ab146103245780635abf43231461035a5780636b149d871461036d5780636e04ff0d1461038f57005b8063442b1278116101ac578063442b12781461028d5780634585e33b146102c157806356a370eb146102e157806356a90e021461031157005b806256d134146101e2578063089fe6aa146102155780631d34bee41461023f57806323cf8f9e1461027757005b366101e057005b005b3480156101ee57600080fd5b506102026101fd3660046120a3565b610658565b6040519081526020015b60405180910390f35b34801561022157600080fd5b5061022b6101f481565b60405162ffffff909116815260200161020c565b34801561024b57600080fd5b5060035461025f906001600160a01b031681565b6040516001600160a01b03909116815260200161020c565b34801561028357600080fd5b5061020260065481565b34801561029957600080fd5b5061025f7f000000000000000000000000000000000000000000000000000000000000000081565b3480156102cd57600080fd5b506101e06102dc3660046120cf565b610689565b3480156102ed57600080fd5b506103016102fc366004612141565b6106d4565b604051901515815260200161020c565b6101e061031f3660046121ca565b610a26565b34801561033057600080fd5b5061025f61033f3660046122ad565b6008602052600090815260409020546001600160a01b031681565b6101e06103683660046122c6565b610a92565b34801561037957600080fd5b50610382610adf565b60405161020c919061242b565b34801561039b57600080fd5b506103af6103aa3660046120cf565b610bc1565b60405161020c9291906124ca565b3480156103c957600080fd5b5061025f7f000000000000000000000000000000000000000000000000000000000000000081565b3480156103fd57600080fd5b50610382610c59565b34801561041257600080fd5b5060045461025f906001600160a01b031681565b34801561043257600080fd5b50610202610d58565b34801561044757600080fd5b50610202600c5481565b6101e061045f3660046124e5565b610de7565b34801561047057600080fd5b5061048461047f3660046122ad565b610e53565b60405161020c91906125a0565b6101e061049f3660046125af565b610f6f565b3480156104b057600080fd5b506101e06104bf3660046122ad565b611133565b3480156104d057600080fd5b506101e06104df36600461264e565b611162565b3480156104f057600080fd5b5060015461025f906001600160a01b031681565b34801561051057600080fd5b5061020260005481565b34801561052657600080fd5b5061025f7f000000000000000000000000000000000000000000000000000000000000000081565b61030161055c3660046122c6565b6111ae565b34801561056d57600080fd5b5061025f7f000000000000000000000000000000000000000000000000000000000000000081565b6101e06105a336600461266b565b611554565b3480156105b457600080fd5b506105c86105c336600461264e565b6116b7565b60405161020c91906126f7565b3480156105e157600080fd5b506101e06105f036600461264e565b611723565b34801561060157600080fd5b506102026106103660046120a3565b61176f565b34801561062157600080fd5b5061020260055481565b34801561063757600080fd5b5061064b610646366004612745565b611876565b60405161020c919061283e565b6009602052816000526040600020818154811061067457600080fd5b90600052602060002001600091509150505481565b60008080808080808080806106a08b8d018d6122c6565b99509950995099509950995099509950995099506106c68a8a8a8a8a8a8a8a8a8a610a92565b505050505050505050505050565b6000828152600860205260408120546001600160a01b038381169116146107385760405162461bcd60e51b8152602060048201526013602482015272556e617574686f72697a656420656e7469747960681b60448201526064015b60405180910390fd5b60005b600a5481101561097f5783600a828154811061075957610759612851565b90600052602060002090600b0201600001540361096d576000600a828154811061078557610785612851565b90600052602060002090600b020160080160006101000a81548160ff02191690831515021790555042600a82815481106107c1576107c1612851565b90600052602060002090600b0201600a0181905550600b600a82815481106107eb576107eb612851565b6000918252602080832084546001818101875595855291909320600b9283029093018054919092029092019182558281015492820180546001600160a01b03199081166001600160a01b039586161790915560028083015490840180548316918616919091179055600380830154908401556004808301549084015560058083015490840180548316918616919091179055600680830154908401805490921694169390931790925560078083015490820155600880830154908201805460ff909216151560ff1990921691909117905560098083015490820155600a91820154908201558054829081106108e2576108e2612851565b60009182526020808320600b9092029091018281556001810180546001600160a01b03199081169091556002820180548216905560038201849055600482018490556005820180548216905560068201805482169055600782018490556008808301805460ff1916905560098301859055600a90920184905587845291526040909120805490911690555b806109778161287d565b91505061073b565b5061098a82846119e5565b6006805490600061099a8361287d565b9091555050600580549060006109af83612896565b90915550506040516e11195c1bdcda5d0811115311551151608a1b81526001600160a01b03831690600f0160408051918290038220600083524260208401529186917fa5a5bd98656058fc95e51c484e0ff0e44860d2f24b8b3be493e84bf30af1efb7910160405180910390a45060015b92915050565b60005b888110156106c657610a808c8c8c8c85818110610a4857610a48612851565b905060200201358b8b86818110610a6157610a61612851565b9050602002016020810190610a76919061264e565b8a8a8a8a8a610f6f565b80610a8a8161287d565b915050610a29565b86600c5414610ac257600c546040516318050f9b60e11b815260048101919091526024810188905260440161072f565b610ad38a8a8a898989898989610f6f565b50505050505050505050565b6060600a805480602002602001604051908101604052809291908181526020016000905b82821015610bb85760008481526020908190206040805161016081018252600b8602909201805483526001808201546001600160a01b0390811685870152600283015481169385019390935260038201546060850152600482015460808501526005820154831660a0850152600682015490921660c0840152600781015460e0840152600881015460ff1615156101008401526009810154610120840152600a01546101408301529083529092019101610b03565b50505050905090565b6000606081808080808080808080610bdb8d8f018f6122c6565b995099509950995099509950995099509950995086600c5414159b508b8e8e81818080601f016020809104026020016040519081016040528093929190818152602001838380828437600081840152601f19601f82011690508083019250505050505050905090509b509b50505050505050505050505b9250929050565b6004546060906001600160a01b03163314610c865760405162461bcd60e51b815260040161072f906128ad565b600b80546040805160208084028201810190925282815292919060009084018215610bb85760008481526020908190206040805161016081018252600b8602909201805483526001808201546001600160a01b0390811685870152600283015481169385019390935260038201546060850152600482015460808501526005820154831660a0850152600682015490921660c0840152600781015460e0840152600881015460ff1615156101008401526009810154610120840152600a01546101408301529083529092019101610b03565b600080600080600080600260009054906101000a90046001600160a01b03166001600160a01b031663feaf968c6040518163ffffffff1660e01b815260040160a060405180830381865afa158015610db4573d6000803e3d6000fd5b505050506040513d601f19601f82011682018060405250810190610dd891906128f4565b50919998505050505050505050565b60005b888110156106c657610e418c8c8c8c85818110610e0957610e09612851565b905060200201358b8b8b87818110610e2357610e23612851565b9050602002016020810190610e38919061264e565b8a8a8a8a610f6f565b80610e4b8161287d565b915050610dea565b610e5b611ffb565b610e63611ffb565b60005b600a54811015610f685783600a8281548110610e8457610e84612851565b90600052602060002090600b02016000015403610f5657600a8181548110610eae57610eae612851565b60009182526020918290206040805161016081018252600b9093029091018054835260018101546001600160a01b0390811694840194909452600281015484169183019190915260038101546060830152600481015460808301526005810154831660a0830152600681015490921660c0820152600782015460e0820152600882015460ff1615156101008201526009820154610120820152600a9091015461014082015291505b80610f608161287d565b915050610e66565b5092915050565b60008711610fbf5760405162461bcd60e51b815260206004820152601d60248201527f416d6f756e74206d7573742062652067726561746572207468616e2030000000604482015260640161072f565b846001600160a01b0316866001600160a01b03160361102c5760405162461bcd60e51b8152602060048201526024808201527f46726f6d20616e6420546f20746f6b656e73206d7573742062652064696666656044820152631c995b9d60e21b606482015260840161072f565b6000841161107c5760405162461bcd60e51b815260206004820152601f60248201527f546f20636861696e206d7573742062652067726561746572207468616e203000604482015260640161072f565b61012c600061108b888a61176f565b6001549091506110ac908b9087906001600160a01b0316848689898e611554565b6040517f4465706f7369742043524541544544202620455845435554454400000000000081526001600160a01b038c1690601a016040805191829003822060075460018452426020850152909290917fa5a5bd98656058fc95e51c484e0ff0e44860d2f24b8b3be493e84bf30af1efb7910160405180910390a45050505050505050505050565b6004546001600160a01b0316331461115d5760405162461bcd60e51b815260040161072f906128ad565b600c55565b6004546001600160a01b0316331461118c5760405162461bcd60e51b815260040161072f906128ad565b600180546001600160a01b0319166001600160a01b0392909216919091179055565b60078054600091826111bf8361287d565b91905055508a60086000600754815260200190815260200160002060006101000a8154816001600160a01b0302191690836001600160a01b03160217905550600960008c6001600160a01b03166001600160a01b0316815260200190815260200160002060075490806001815401808255809150506001900390600052602060002001600090919091909150556005600081548092919061125f9061287d565b91905055506112768b8b8b8b8b8b8b8b8b8b611acf565b50604080516101608101825260075481526001600160a01b038d8116602083018181528e8316848601908152606085018f8152608086018f81528e861660a088019081528e871660c0890190815260e089018f815260016101008b01818152426101208d018181526101408e01918252600a805494850181556000529c517fc65a7bb8d6351c1cf70c95a316cc6a92839c986682d98bc35f958f4883f9d2a8600b9094029384015598517fc65a7bb8d6351c1cf70c95a316cc6a92839c986682d98bc35f958f4883f9d2a9830180546001600160a01b0319908116928e1692909217905597517fc65a7bb8d6351c1cf70c95a316cc6a92839c986682d98bc35f958f4883f9d2aa830180548a16918d1691909117905595517fc65a7bb8d6351c1cf70c95a316cc6a92839c986682d98bc35f958f4883f9d2ab82015593517fc65a7bb8d6351c1cf70c95a316cc6a92839c986682d98bc35f958f4883f9d2ac85015591517fc65a7bb8d6351c1cf70c95a316cc6a92839c986682d98bc35f958f4883f9d2ad840180548716918a16919091179055517fc65a7bb8d6351c1cf70c95a316cc6a92839c986682d98bc35f958f4883f9d2ae8301805490951697169690961790925593517fc65a7bb8d6351c1cf70c95a316cc6a92839c986682d98bc35f958f4883f9d2af82015592517fc65a7bb8d6351c1cf70c95a316cc6a92839c986682d98bc35f958f4883f9d2b08401805460ff191691151591909117905592517fc65a7bb8d6351c1cf70c95a316cc6a92839c986682d98bc35f958f4883f9d2b183015591517fc65a7bb8d6351c1cf70c95a316cc6a92839c986682d98bc35f958f4883f9d2b29091015590516e11195c1bdcda5d0810d49150551151608a1b8152600f016040805191829003822060075460018452426020850152909290917fa5a5bd98656058fc95e51c484e0ff0e44860d2f24b8b3be493e84bf30af1efb7910160405180910390a45060019a9950505050505050505050565b60405163095ea7b360e01b81526001600160a01b037f0000000000000000000000000000000000000000000000000000000000000000811660048301526024820187905287919082169063095ea7b3906044016020604051808303816000875af11580156115c6573d6000803e3d6000fd5b505050506040513d601f19601f820116820180604052508101906115ea9190612944565b50604080516001600160a01b038b811660208301528481168284015282518083038401815260608301938490526345560b5d60e11b9093527f00000000000000000000000000000000000000000000000000000000000000001690638aac16ba908790611667908d9089908e9033908f908f908b90606401612966565b60206040518083038185885af1158015611685573d6000803e3d6000fd5b50505050506040513d601f19601f820116820180604052508101906116aa91906129c1565b5050505050505050505050565b6001600160a01b03811660009081526009602090815260409182902080548351818402810184019094528084526060939283018282801561171757602002820191906000526020600020905b815481526020019060010190808311611703575b50505050509050919050565b6004546001600160a01b0316331461174d5760405162461bcd60e51b815260040161072f906128ad565b600380546001600160a01b0319166001600160a01b0392909216919091179055565b600061179c837f000000000000000000000000000000000000000000000000000000000000000084611d47565b60408051610100810182526001600160a01b038086168252600154811660208301526101f48284015230606083015242608083015260a08201859052600060c0830181905260e0830152915163414bf38960e01b815290917f0000000000000000000000000000000000000000000000000000000000000000169063414bf3899061182b9084906004016129da565b6020604051808303816000875af115801561184a573d6000803e3d6000fd5b505050506040513d601f19601f8201168201806040525081019061186e91906129c1565b949350505050565b60606000808380602001905181019061188f9190612a43565b60015491935091506118cb906001600160a01b03167f00000000000000000000000000000000000000000000000000000000000000008a611d47565b60408051610100810182526001546001600160a01b03908116825283811660208301526101f49282019290925290831660608201526000906080810161191342610e10612a72565b81526020018a81526020016000815260200160006001600160a01b0316815250905060007f00000000000000000000000000000000000000000000000000000000000000006001600160a01b031663414bf389836040518263ffffffff1660e01b815260040161198391906129da565b6020604051808303816000875af11580156119a2573d6000803e3d6000fd5b505050506040513d601f19601f820116820180604052508101906119c691906129c1565b50506040805160208101909152600081529a9950505050505050505050565b6001600160a01b0382166000908152600960205260409020548110611a0957600080fd5b6001600160a01b03821660009081526009602052604090208054611a2f90600190612a85565b81548110611a3f57611a3f612851565b906000526020600020015460096000846001600160a01b03166001600160a01b031681526020019081526020016000208281548110611a8057611a80612851565b60009182526020808320909101929092556001600160a01b0384168152600990915260409020805480611ab557611ab5612a98565b600190038181906000526020600020016000905590555050565b604080516001600160a01b038c811660208301528b811682840152606082018b9052608082018a905288811660a083015287811660c083015260e0820187905263ffffffff861661010083015261012082018590528316610140808301919091528251808303909101815261026082019092526000919082906101600180611b568f611e47565b604051602001611b669190612aae565b60408051808303601f1901815291815290825280518082018252600280825261060f60f31b60208084018290528086019390935230858501819052620f42406060870152608086015260a08501889052835180850185529182529181019190915260c083015267016345785d8a000060e09283015290820151905163095ea7b360e01b81526001600160a01b037f0000000000000000000000000000000000000000000000000000000000000000811660048301526bffffffffffffffffffffffff90921660248201529192507f0000000000000000000000000000000000000000000000000000000000000000169063095ea7b3906044016020604051808303816000875af1158015611c7e573d6000803e3d6000fd5b505050506040513d601f19601f82011682018060405250810190611ca29190612944565b5060405163022de76960e21b81526000906001600160a01b037f000000000000000000000000000000000000000000000000000000000000000016906308b79da490611cf2908590600401612ae0565b6020604051808303816000875af1158015611d11573d6000803e3d6000fd5b505050506040513d601f19601f82011682018060405250810190611d3591906129c1565b9e9d5050505050505050505050505050565b604080516001600160a01b038481166024830152604480830185905283518084039091018152606490920183526020820180516001600160e01b031663095ea7b360e01b1790529151600092839290871691611da39190612bc8565b6000604051808303816000865af19150503d8060008114611de0576040519150601f19603f3d011682016040523d82523d6000602084013e611de5565b606091505b5091509150818015611e0f575080511580611e0f575080806020019051810190611e0f9190612944565b611e405760405162461bcd60e51b8152602060048201526002602482015261534160f01b604482015260640161072f565b5050505050565b6060610a206001600160a01b038316601460606000611e67836002612be4565b611e72906002612a72565b67ffffffffffffffff811115611e8a57611e8a61272f565b6040519080825280601f01601f191660200182016040528015611eb4576020820181803683370190505b509050600360fc1b81600081518110611ecf57611ecf612851565b60200101906001600160f81b031916908160001a905350600f60fb1b81600181518110611efe57611efe612851565b60200101906001600160f81b031916908160001a9053506000611f22846002612be4565b611f2d906001612a72565b90505b6001811115611fa5576f181899199a1a9b1b9c1cb0b131b232b360811b85600f1660108110611f6157611f61612851565b1a60f81b828281518110611f7757611f77612851565b60200101906001600160f81b031916908160001a90535060049490941c93611f9e81612896565b9050611f30565b508315611ff45760405162461bcd60e51b815260206004820181905260248201527f537472696e67733a20686578206c656e67746820696e73756666696369656e74604482015260640161072f565b9392505050565b6040518061016001604052806000815260200160006001600160a01b0316815260200160006001600160a01b03168152602001600081526020016000815260200160006001600160a01b0316815260200160006001600160a01b031681526020016000815260200160001515815260200160008152602001600081525090565b6001600160a01b038116811461209057600080fd5b50565b803561209e8161207b565b919050565b600080604083850312156120b657600080fd5b82356120c18161207b565b946020939093013593505050565b600080602083850312156120e257600080fd5b823567ffffffffffffffff808211156120fa57600080fd5b818501915085601f83011261210e57600080fd5b81358181111561211d57600080fd5b86602082850101111561212f57600080fd5b60209290920196919550909350505050565b6000806040838503121561215457600080fd5b8235915060208301356121668161207b565b809150509250929050565b60008083601f84011261218357600080fd5b50813567ffffffffffffffff81111561219b57600080fd5b6020830191508360208260051b8501011115610c5257600080fd5b803563ffffffff8116811461209e57600080fd5b60008060008060008060008060008060006101208c8e0312156121ec57600080fd5b6121f68c3561207b565b8b359a5061220760208d013561207b565b60208c0135995067ffffffffffffffff8060408e0135111561222857600080fd5b6122388e60408f01358f01612171565b909a50985060608d013581101561224e57600080fd5b5061225f8d60608e01358e01612171565b909750955061227060808d01612093565b945060a08c0135935061228560c08d016121b6565b925060e08c0135915061229b6101008d01612093565b90509295989b509295989b9093969950565b6000602082840312156122bf57600080fd5b5035919050565b6000806000806000806000806000806101408b8d0312156122e657600080fd5b8a356122f18161207b565b995060208b01356123018161207b565b985060408b0135975060608b0135965060808b013561231f8161207b565b955060a08b013561232f8161207b565b945060c08b0135935061234460e08c016121b6565b92506101008b013591506101208b013561235d8161207b565b809150509295989b9194979a5092959850565b80518252602081015161238e60208401826001600160a01b03169052565b5060408101516123a960408401826001600160a01b03169052565b50606081015160608301526080810151608083015260a08101516123d860a08401826001600160a01b03169052565b5060c08101516123f360c08401826001600160a01b03169052565b5060e081015160e0830152610100808201516124128285018215159052565b5050610120818101519083015261014090810151910152565b6020808252825182820181905260009190848201906040850190845b8181101561246e5761245a838551612370565b928401926101609290920191600101612447565b50909695505050505050565b60005b8381101561249557818101518382015260200161247d565b50506000910152565b600081518084526124b681602086016020860161247a565b601f01601f19169290920160200192915050565b821515815260406020820152600061186e604083018461249e565b60008060008060008060008060008060006101208c8e03121561250757600080fd5b6125118c3561207b565b8b359a5061252260208d013561207b565b60208c0135995067ffffffffffffffff8060408e0135111561254357600080fd5b6125538e60408f01358f01612171565b909a50985061256460608e01612093565b97508060808e0135111561257757600080fd5b506125888d60808e01358e01612171565b909650945060a08c0135935061228560c08d016121b6565b6101608101610a208284612370565b60008060008060008060008060006101208a8c0312156125ce57600080fd5b89356125d98161207b565b985060208a01356125e98161207b565b975060408a0135965060608a01356126008161207b565b955060808a01356126108161207b565b945060a08a0135935061262560c08b016121b6565b925060e08a013591506101008a013561263d8161207b565b809150509295985092959850929598565b60006020828403121561266057600080fd5b8135611ff48161207b565b600080600080600080600080610100898b03121561268857600080fd5b88356126938161207b565b97506126a160208a016121b6565b965060408901356126b18161207b565b9550606089013594506080890135935060a0890135925060c08901356126d68161207b565b915060e08901356126e68161207b565b809150509295985092959890939650565b6020808252825182820181905260009190848201906040850190845b8181101561246e57835183529284019291840191600101612713565b634e487b7160e01b600052604160045260246000fd5b60008060008060008060c0878903121561275e57600080fd5b863595506020870135945060408701356127778161207b565b935060608701356127878161207b565b9250612795608088016121b6565b915060a087013567ffffffffffffffff808211156127b257600080fd5b818901915089601f8301126127c657600080fd5b8135818111156127d8576127d861272f565b604051601f8201601f19908116603f011681019083821181831017156128005761280061272f565b816040528281528c602084870101111561281957600080fd5b8260208601602083013760006020848301015280955050505050509295509295509295565b602081526000611ff4602083018461249e565b634e487b7160e01b600052603260045260246000fd5b634e487b7160e01b600052601160045260246000fd5b60006001820161288f5761288f612867565b5060010190565b6000816128a5576128a5612867565b506000190190565b6020808252601390820152724f776e6572207265736572766564206f6e6c7960681b604082015260600190565b805169ffffffffffffffffffff8116811461209e57600080fd5b600080600080600060a0868803121561290c57600080fd5b612915866128da565b9450602086015193506040860151925060608601519150612938608087016128da565b90509295509295909350565b60006020828403121561295657600080fd5b81518015158114611ff457600080fd5b63ffffffff881681526001600160a01b0387811660208301528681166040830152851660608201526080810184905260a0810183905260e060c082018190526000906129b49083018461249e565b9998505050505050505050565b6000602082840312156129d357600080fd5b5051919050565b81516001600160a01b03908116825260208084015182169083015260408084015162ffffff16908301526060808401518216908301526080808401519083015260a0838101519083015260c0808401519083015260e09283015116918101919091526101000190565b60008060408385031215612a5657600080fd5b8251612a618161207b565b60208401519092506121668161207b565b80820180821115610a2057610a20612867565b81810381811115610a2057610a20612867565b634e487b7160e01b600052603160045260246000fd5b692634b6b4ba27b93232b960b11b815260008251612ad381600a85016020870161247a565b91909101600a0192915050565b6020815260008251610100806020850152612aff61012085018361249e565b91506020850151601f1980868503016040870152612b1d848361249e565b935060408701519150612b3b60608701836001600160a01b03169052565b606087015163ffffffff81166080880152915060808701516001600160a01b03811660a0880152915060a08701519150808685030160c0870152612b7f848361249e565b935060c08701519150808685030160e087015250612b9d838261249e565b92505060e0850151612bbe828601826bffffffffffffffffffffffff169052565b5090949350505050565b60008251612bda81846020870161247a565b9190910192915050565b8082028115828204841417610a2057610a2061286756fea2646970667358221220cf6e65cd615fe07876eda82b378b8447eb47db8366ca2bc57745f700f50ff0a764736f6c63430008110033",
  "linkReferences": {},
  "deployedLinkReferences": {}
}