{
  "_format": "hh-sol-artifact-1",
  "contractName": "AutoLimitXSwap",
  "sourceName": "contracts/AutoLimitXSwap.sol",
  "abi": [
    {
      "inputs": [
        {
          "internalType": "contract IConnext",
          "name": "_connext",
          "type": "address"
        },
        {
          "internalType": "contract ISwapRouter",
          "name": "_swapRouter",
          "type": "address"
        },
        {
          "internalType": "contract LinkTokenInterface",
          "name": "_link",
          "type": "address"
        },
        {
          "internalType": "contract KeeperRegistrarInterface",
          "name": "_registrar",
          "type": "address"
        },
        {
          "internalType": "address",
          "name": "_wethAddress",
          "type": "address"
        },
        {
          "internalType": "address",
          "name": "_nativeAddress",
          "type": "address"
        }
      ],
      "stateMutability": "nonpayable",
      "type": "constructor"
    },
    {
      "inputs": [
        {
          "internalType": "int256",
          "name": "",
          "type": "int256"
        },
        {
          "internalType": "int256",
          "name": "",
          "type": "int256"
        }
      ],
      "name": "CONDITION_NOT_MET",
      "type": "error"
    },
    {
      "anonymous": false,
      "inputs": [
        {
          "indexed": true,
          "internalType": "uint256",
          "name": "DepositId",
          "type": "uint256"
        },
        {
          "indexed": true,
          "internalType": "string",
          "name": "actionType",
          "type": "string"
        },
        {
          "indexed": false,
          "internalType": "bool",
          "name": "isActive",
          "type": "bool"
        },
        {
          "indexed": true,
          "internalType": "address",
          "name": "author",
          "type": "address"
        },
        {
          "indexed": false,
          "internalType": "uint256",
          "name": "timestamp",
          "type": "uint256"
        }
      ],
      "name": "Action",
      "type": "event"
    },
    {
      "stateMutability": "payable",
      "type": "fallback"
    },
    {
      "inputs": [
        {
          "internalType": "address",
          "name": "",
          "type": "address"
        },
        {
          "internalType": "uint256",
          "name": "",
          "type": "uint256"
        }
      ],
      "name": "DepositsOf",
      "outputs": [
        {
          "internalType": "uint256",
          "name": "",
          "type": "uint256"
        }
      ],
      "stateMutability": "view",
      "type": "function"
    },
    {
      "inputs": [],
      "name": "NATIVE",
      "outputs": [
        {
          "internalType": "address",
          "name": "",
          "type": "address"
        }
      ],
      "stateMutability": "view",
      "type": "function"
    },
    {
      "inputs": [],
      "name": "WETH",
      "outputs": [
        {
          "internalType": "address",
          "name": "",
          "type": "address"
        }
      ],
      "stateMutability": "view",
      "type": "function"
    },
    {
      "inputs": [],
      "name": "activeDepositCounter",
      "outputs": [
        {
          "internalType": "uint256",
          "name": "",
          "type": "uint256"
        }
      ],
      "stateMutability": "view",
      "type": "function"
    },
    {
      "inputs": [
        {
          "internalType": "uint256",
          "name": "",
          "type": "uint256"
        }
      ],
      "name": "authorOf",
      "outputs": [
        {
          "internalType": "address",
          "name": "",
          "type": "address"
        }
      ],
      "stateMutability": "view",
      "type": "function"
    },
    {
      "inputs": [
        {
          "internalType": "int256",
          "name": "_price",
          "type": "int256"
        }
      ],
      "name": "changePrice",
      "outputs": [],
      "stateMutability": "nonpayable",
      "type": "function"
    },
    {
      "inputs": [
        {
          "internalType": "bytes",
          "name": "checkData",
          "type": "bytes"
        }
      ],
      "name": "checkUpkeep",
      "outputs": [
        {
          "internalType": "bool",
          "name": "upkeepNeeded",
          "type": "bool"
        },
        {
          "internalType": "bytes",
          "name": "performData",
          "type": "bytes"
        }
      ],
      "stateMutability": "view",
      "type": "function"
    },
    {
      "inputs": [],
      "name": "connext",
      "outputs": [
        {
          "internalType": "contract IConnext",
          "name": "",
          "type": "address"
        }
      ],
      "stateMutability": "view",
      "type": "function"
    },
    {
      "inputs": [
        {
          "internalType": "address",
          "name": "_from",
          "type": "address"
        },
        {
          "internalType": "address",
          "name": "_to",
          "type": "address"
        },
        {
          "internalType": "uint256",
          "name": "_amount",
          "type": "uint256"
        },
        {
          "internalType": "int256",
          "name": "_price",
          "type": "int256"
        },
        {
          "internalType": "address",
          "name": "_fromToken",
          "type": "address"
        },
        {
          "internalType": "address",
          "name": "_toToken",
          "type": "address"
        },
        {
          "internalType": "uint256",
          "name": "_toChain",
          "type": "uint256"
        },
        {
          "internalType": "uint32",
          "name": "destinationDomain",
          "type": "uint32"
        },
        {
          "internalType": "uint256",
          "name": "relayerFee",
          "type": "uint256"
        },
        {
          "internalType": "address",
          "name": "_destinationContractAddress",
          "type": "address"
        }
      ],
      "name": "createDeposit",
      "outputs": [
        {
          "internalType": "bool",
          "name": "",
          "type": "bool"
        }
      ],
      "stateMutability": "payable",
      "type": "function"
    },
    {
      "inputs": [
        {
          "internalType": "uint256",
          "name": "DepositId",
          "type": "uint256"
        },
        {
          "internalType": "address",
          "name": "_from",
          "type": "address"
        }
      ],
      "name": "deleteDeposit",
      "outputs": [
        {
          "internalType": "bool",
          "name": "",
          "type": "bool"
        }
      ],
      "stateMutability": "nonpayable",
      "type": "function"
    },
    {
      "inputs": [
        {
          "internalType": "address",
          "name": "_from",
          "type": "address"
        },
        {
          "internalType": "address",
          "name": "_to",
          "type": "address"
        },
        {
          "internalType": "uint256",
          "name": "_amount",
          "type": "uint256"
        },
        {
          "internalType": "int256",
          "name": "_price",
          "type": "int256"
        },
        {
          "internalType": "address",
          "name": "_fromToken",
          "type": "address"
        },
        {
          "internalType": "address",
          "name": "_toToken",
          "type": "address"
        },
        {
          "internalType": "uint256",
          "name": "_toChain",
          "type": "uint256"
        },
        {
          "internalType": "uint32",
          "name": "destinationDomain",
          "type": "uint32"
        },
        {
          "internalType": "uint256",
          "name": "relayerFee",
          "type": "uint256"
        },
        {
          "internalType": "address",
          "name": "_destinationContractAddress",
          "type": "address"
        }
      ],
      "name": "executeLimitOrder",
      "outputs": [],
      "stateMutability": "payable",
      "type": "function"
    },
    {
      "inputs": [
        {
          "internalType": "address",
          "name": "_from",
          "type": "address"
        },
        {
          "internalType": "address",
          "name": "_to",
          "type": "address"
        },
        {
          "internalType": "uint256[]",
          "name": "_amounts",
          "type": "uint256[]"
        },
        {
          "internalType": "address",
          "name": "_fromToken",
          "type": "address"
        },
        {
          "internalType": "address[]",
          "name": "_toTokens",
          "type": "address[]"
        },
        {
          "internalType": "uint256",
          "name": "_toChain",
          "type": "uint256"
        },
        {
          "internalType": "uint32",
          "name": "_destinationDomain",
          "type": "uint32"
        },
        {
          "internalType": "uint256",
          "name": "relayerFee",
          "type": "uint256"
        },
        {
          "internalType": "address",
          "name": "_destinationContractAddress",
          "type": "address"
        }
      ],
      "name": "executeMultipleOrderToMany",
      "outputs": [],
      "stateMutability": "payable",
      "type": "function"
    },
    {
      "inputs": [
        {
          "internalType": "address",
          "name": "_from",
          "type": "address"
        },
        {
          "internalType": "address",
          "name": "_to",
          "type": "address"
        },
        {
          "internalType": "uint256[]",
          "name": "_amounts",
          "type": "uint256[]"
        },
        {
          "internalType": "address[]",
          "name": "_fromTokens",
          "type": "address[]"
        },
        {
          "internalType": "address",
          "name": "_toToken",
          "type": "address"
        },
        {
          "internalType": "uint256",
          "name": "_toChain",
          "type": "uint256"
        },
        {
          "internalType": "uint32",
          "name": "_destinationDomain",
          "type": "uint32"
        },
        {
          "internalType": "uint256",
          "name": "relayerFee",
          "type": "uint256"
        },
        {
          "internalType": "address",
          "name": "_destinationContractAddress",
          "type": "address"
        }
      ],
      "name": "executeMultipleOrderToOne",
      "outputs": [],
      "stateMutability": "payable",
      "type": "function"
    },
    {
      "inputs": [
        {
          "internalType": "address",
          "name": "_from",
          "type": "address"
        },
        {
          "internalType": "address",
          "name": "_to",
          "type": "address"
        },
        {
          "internalType": "uint256",
          "name": "_amount",
          "type": "uint256"
        },
        {
          "internalType": "address",
          "name": "_fromToken",
          "type": "address"
        },
        {
          "internalType": "address",
          "name": "_toToken",
          "type": "address"
        },
        {
          "internalType": "uint256",
          "name": "_toChain",
          "type": "uint256"
        },
        {
          "internalType": "uint32",
          "name": "destinationDomain",
          "type": "uint32"
        },
        {
          "internalType": "uint256",
          "name": "relayerFee",
          "type": "uint256"
        },
        {
          "internalType": "address",
          "name": "_destinationContractAddress",
          "type": "address"
        }
      ],
      "name": "executeOrder",
      "outputs": [],
      "stateMutability": "payable",
      "type": "function"
    },
    {
      "inputs": [],
      "name": "getDeletedDeposit",
      "outputs": [
        {
          "components": [
            {
              "internalType": "uint256",
              "name": "DepositId",
              "type": "uint256"
            },
            {
              "internalType": "address",
              "name": "from",
              "type": "address"
            },
            {
              "internalType": "address",
              "name": "to",
              "type": "address"
            },
            {
              "internalType": "uint256",
              "name": "amount",
              "type": "uint256"
            },
            {
              "internalType": "int256",
              "name": "price",
              "type": "int256"
            },
            {
              "internalType": "address",
              "name": "fromToken",
              "type": "address"
            },
            {
              "internalType": "address",
              "name": "toToken",
              "type": "address"
            },
            {
              "internalType": "uint256",
              "name": "toChain",
              "type": "uint256"
            },
            {
              "internalType": "bool",
              "name": "isActive",
              "type": "bool"
            },
            {
              "internalType": "uint256",
              "name": "created",
              "type": "uint256"
            },
            {
              "internalType": "uint256",
              "name": "updated",
              "type": "uint256"
            }
          ],
          "internalType": "struct AutoLimitXSwap.DepositStruct[]",
          "name": "",
          "type": "tuple[]"
        }
      ],
      "stateMutability": "view",
      "type": "function"
    },
    {
      "inputs": [],
      "name": "getDeposits",
      "outputs": [
        {
          "components": [
            {
              "internalType": "uint256",
              "name": "DepositId",
              "type": "uint256"
            },
            {
              "internalType": "address",
              "name": "from",
              "type": "address"
            },
            {
              "internalType": "address",
              "name": "to",
              "type": "address"
            },
            {
              "internalType": "uint256",
              "name": "amount",
              "type": "uint256"
            },
            {
              "internalType": "int256",
              "name": "price",
              "type": "int256"
            },
            {
              "internalType": "address",
              "name": "fromToken",
              "type": "address"
            },
            {
              "internalType": "address",
              "name": "toToken",
              "type": "address"
            },
            {
              "internalType": "uint256",
              "name": "toChain",
              "type": "uint256"
            },
            {
              "internalType": "bool",
              "name": "isActive",
              "type": "bool"
            },
            {
              "internalType": "uint256",
              "name": "created",
              "type": "uint256"
            },
            {
              "internalType": "uint256",
              "name": "updated",
              "type": "uint256"
            }
          ],
          "internalType": "struct AutoLimitXSwap.DepositStruct[]",
          "name": "",
          "type": "tuple[]"
        }
      ],
      "stateMutability": "view",
      "type": "function"
    },
    {
      "inputs": [],
      "name": "getLatestPrice",
      "outputs": [
        {
          "internalType": "int256",
          "name": "",
          "type": "int256"
        }
      ],
      "stateMutability": "view",
      "type": "function"
    },
    {
      "inputs": [],
      "name": "honeySwapRouter2",
      "outputs": [
        {
          "internalType": "contract IUniswapV2Router02",
          "name": "",
          "type": "address"
        }
      ],
      "stateMutability": "view",
      "type": "function"
    },
    {
      "inputs": [],
      "name": "i_link",
      "outputs": [
        {
          "internalType": "contract LinkTokenInterface",
          "name": "",
          "type": "address"
        }
      ],
      "stateMutability": "view",
      "type": "function"
    },
    {
      "inputs": [],
      "name": "i_registrar",
      "outputs": [
        {
          "internalType": "contract KeeperRegistrarInterface",
          "name": "",
          "type": "address"
        }
      ],
      "stateMutability": "view",
      "type": "function"
    },
    {
      "inputs": [],
      "name": "inactiveDepositCounter",
      "outputs": [
        {
          "internalType": "uint256",
          "name": "",
          "type": "uint256"
        }
      ],
      "stateMutability": "view",
      "type": "function"
    },
    {
      "inputs": [],
      "name": "out",
      "outputs": [
        {
          "internalType": "uint256",
          "name": "",
          "type": "uint256"
        }
      ],
      "stateMutability": "view",
      "type": "function"
    },
    {
      "inputs": [],
      "name": "owner",
      "outputs": [
        {
          "internalType": "address",
          "name": "",
          "type": "address"
        }
      ],
      "stateMutability": "view",
      "type": "function"
    },
    {
      "inputs": [
        {
          "internalType": "bytes",
          "name": "performData",
          "type": "bytes"
        }
      ],
      "name": "performUpkeep",
      "outputs": [],
      "stateMutability": "nonpayable",
      "type": "function"
    },
    {
      "inputs": [],
      "name": "poolFee1",
      "outputs": [
        {
          "internalType": "uint24",
          "name": "",
          "type": "uint24"
        }
      ],
      "stateMutability": "view",
      "type": "function"
    },
    {
      "inputs": [],
      "name": "poolFee2",
      "outputs": [
        {
          "internalType": "uint24",
          "name": "",
          "type": "uint24"
        }
      ],
      "stateMutability": "view",
      "type": "function"
    },
    {
      "inputs": [],
      "name": "price",
      "outputs": [
        {
          "internalType": "int256",
          "name": "",
          "type": "int256"
        }
      ],
      "stateMutability": "view",
      "type": "function"
    },
    {
      "inputs": [
        {
          "internalType": "address",
          "name": "_RouterAddress",
          "type": "address"
        }
      ],
      "name": "setHoneySwapRouter2",
      "outputs": [],
      "stateMutability": "nonpayable",
      "type": "function"
    },
    {
      "inputs": [
        {
          "internalType": "address",
          "name": "nativeAddress",
          "type": "address"
        }
      ],
      "name": "setNativeAddress",
      "outputs": [],
      "stateMutability": "nonpayable",
      "type": "function"
    },
    {
      "inputs": [
        {
          "internalType": "uint24",
          "name": "_poolFee1",
          "type": "uint24"
        }
      ],
      "name": "setPoolFee1",
      "outputs": [],
      "stateMutability": "nonpayable",
      "type": "function"
    },
    {
      "inputs": [
        {
          "internalType": "uint24",
          "name": "_poolFee2",
          "type": "uint24"
        }
      ],
      "name": "setPoolFee2",
      "outputs": [],
      "stateMutability": "nonpayable",
      "type": "function"
    },
    {
      "inputs": [
        {
          "internalType": "uint96",
          "name": "_upkeepFee",
          "type": "uint96"
        }
      ],
      "name": "setUpkeepFee",
      "outputs": [],
      "stateMutability": "nonpayable",
      "type": "function"
    },
    {
      "inputs": [
        {
          "internalType": "address",
          "name": "wethAddress",
          "type": "address"
        }
      ],
      "name": "setWethAddress",
      "outputs": [],
      "stateMutability": "nonpayable",
      "type": "function"
    },
    {
      "inputs": [
        {
          "internalType": "uint256",
          "name": "DepositId",
          "type": "uint256"
        }
      ],
      "name": "showDeposit",
      "outputs": [
        {
          "components": [
            {
              "internalType": "uint256",
              "name": "DepositId",
              "type": "uint256"
            },
            {
              "internalType": "address",
              "name": "from",
              "type": "address"
            },
            {
              "internalType": "address",
              "name": "to",
              "type": "address"
            },
            {
              "internalType": "uint256",
              "name": "amount",
              "type": "uint256"
            },
            {
              "internalType": "int256",
              "name": "price",
              "type": "int256"
            },
            {
              "internalType": "address",
              "name": "fromToken",
              "type": "address"
            },
            {
              "internalType": "address",
              "name": "toToken",
              "type": "address"
            },
            {
              "internalType": "uint256",
              "name": "toChain",
              "type": "uint256"
            },
            {
              "internalType": "bool",
              "name": "isActive",
              "type": "bool"
            },
            {
              "internalType": "uint256",
              "name": "created",
              "type": "uint256"
            },
            {
              "internalType": "uint256",
              "name": "updated",
              "type": "uint256"
            }
          ],
          "internalType": "struct AutoLimitXSwap.DepositStruct",
          "name": "",
          "type": "tuple"
        }
      ],
      "stateMutability": "view",
      "type": "function"
    },
    {
      "inputs": [
        {
          "internalType": "address",
          "name": "_user",
          "type": "address"
        }
      ],
      "name": "showDepositsOfUser",
      "outputs": [
        {
          "internalType": "uint256[]",
          "name": "",
          "type": "uint256[]"
        }
      ],
      "stateMutability": "view",
      "type": "function"
    },
    {
      "inputs": [
        {
          "internalType": "address",
          "name": "_token",
          "type": "address"
        },
        {
          "internalType": "uint256",
          "name": "amountIn",
          "type": "uint256"
        }
      ],
      "name": "swapExactInputSingle",
      "outputs": [
        {
          "internalType": "uint256",
          "name": "amountOut",
          "type": "uint256"
        }
      ],
      "stateMutability": "nonpayable",
      "type": "function"
    },
    {
      "inputs": [],
      "name": "swapRouter",
      "outputs": [
        {
          "internalType": "contract ISwapRouter",
          "name": "",
          "type": "address"
        }
      ],
      "stateMutability": "view",
      "type": "function"
    },
    {
      "inputs": [],
      "name": "upkeepFee",
      "outputs": [
        {
          "internalType": "uint96",
          "name": "",
          "type": "uint96"
        }
      ],
      "stateMutability": "view",
      "type": "function"
    },
    {
      "inputs": [
        {
          "internalType": "bytes32",
          "name": "_transferId",
          "type": "bytes32"
        },
        {
          "internalType": "uint256",
          "name": "_amount",
          "type": "uint256"
        },
        {
          "internalType": "address",
          "name": "_asset",
          "type": "address"
        },
        {
          "internalType": "address",
          "name": "_originSender",
          "type": "address"
        },
        {
          "internalType": "uint32",
          "name": "_origin",
          "type": "uint32"
        },
        {
          "internalType": "bytes",
          "name": "_callData",
          "type": "bytes"
        }
      ],
      "name": "xReceive",
      "outputs": [
        {
          "internalType": "bytes",
          "name": "",
          "type": "bytes"
        }
      ],
      "stateMutability": "nonpayable",
      "type": "function"
    },
    {
      "inputs": [
        {
          "internalType": "address",
          "name": "recipient",
          "type": "address"
        },
        {
          "internalType": "uint32",
          "name": "destinationDomain",
          "type": "uint32"
        },
        {
          "internalType": "address",
          "name": "tokenAddress",
          "type": "address"
        },
        {
          "internalType": "uint256",
          "name": "amount",
          "type": "uint256"
        },
        {
          "internalType": "uint256",
          "name": "slippage",
          "type": "uint256"
        },
        {
          "internalType": "uint256",
          "name": "relayerFee",
          "type": "uint256"
        },
        {
          "internalType": "address",
          "name": "_destinationContractAddress",
          "type": "address"
        },
        {
          "internalType": "address",
          "name": "_toToken",
          "type": "address"
        }
      ],
      "name": "xTransfer",
      "outputs": [],
      "stateMutability": "payable",
      "type": "function"
    },
    {
      "stateMutability": "payable",
      "type": "receive"
    }
  ],
  "bytecode": "0x6101006040526000805465ffffffffffff1916642710002710178155600580546001600160a01b031664b1a2bc2ec560b21b179055600680546308b79da463ffffffff19909116179055600781905560088190556009556064600e553480156200006857600080fd5b50604051620031fc380380620031fc8339810160408190526200008b916200010a565b6001600160a01b0395861660805293851660a052600680546401000000003302600160201b600160c01b031990911617905591841660c052831660e052600280549184166001600160a01b0319928316179055600380549290931691161790556200019e565b6001600160a01b03811681146200010757600080fd5b50565b60008060008060008060c087890312156200012457600080fd5b86516200013181620000f1565b60208801519096506200014481620000f1565b60408801519095506200015781620000f1565b60608801519094506200016a81620000f1565b60808801519093506200017d81620000f1565b60a08801519092506200019081620000f1565b809150509295509295509295565b60805160a05160c05160e051612fe5620002176000396000818161031901528181611f9501526120390152600081816104880152611f6001526000818161064801528181611a3d01528181611b0a01528181611bba0152611cbd0152600081816106af0152818161182a01526118e30152612fe56000f3fe6080604052600436106102265760003560e01c8063a0cf0aea11610122578063caa4654d116100a5578063e76575c01161006c578063e76575c014610704578063e8299ed314610731578063f040976c14610751578063fc17c8fa14610771578063fd614f411461078757005b8063caa4654d1461066a578063cbf784811461067d578063de4b05481461069d578063e173838d146106d1578063e23ed0b5146106f157005b8063a96e2423116100e9578063a96e2423146105c4578063ad5c4648146105e4578063af23ccc414610604578063b2a1449b14610620578063c31c9c071461063657005b8063a0cf0aea14610531578063a235efcb14610551578063a26056fc14610564578063a33f83f014610591578063a5dc83d6146105a457005b80635abf4323116101aa5780638900d7be116101715780638900d7be146104aa5780638da5cb5b146104bf5780638e15f473146104e657806391533a8c146104fb578063a035b1fe1461051b57005b80635abf4323146103d45780636170cd67146103e75780636b149d87146104265780636e04ff0d146104485780637d253aff1461047657005b8063442b1278116101ee578063442b1278146103075780634585e33b1461033b57806356a370eb1461035b57806356a90e021461038b578063571733ab1461039e57005b806256d1341461022f5780631d34bee41461026257806323cf8f9e1461029a5780632a8448d3146102b05780633fe8b1aa146102d057005b3661022d57005b005b34801561023b57600080fd5b5061024f61024a36600461241f565b6107b4565b6040519081526020015b60405180910390f35b34801561026e57600080fd5b50600554610282906001600160a01b031681565b6040516001600160a01b039091168152602001610259565b3480156102a657600080fd5b5061024f60085481565b3480156102bc57600080fd5b5061022d6102cb36600461244b565b6107e5565b3480156102dc57600080fd5b506000546102f3906301000000900462ffffff1681565b60405162ffffff9091168152602001610259565b34801561031357600080fd5b506102827f000000000000000000000000000000000000000000000000000000000000000081565b34801561034757600080fd5b5061022d610356366004612474565b610847565b34801561036757600080fd5b5061037b6103763660046124e6565b610892565b6040519015158152602001610259565b61022d61039936600461256f565b610bdd565b3480156103aa57600080fd5b506102826103b9366004612652565b600a602052600090815260409020546001600160a01b031681565b61022d6103e236600461266b565b610c49565b3480156103f357600080fd5b5060055461040e90600160a01b90046001600160601b031681565b6040516001600160601b039091168152602001610259565b34801561043257600080fd5b5061043b610c96565b60405161025991906127d0565b34801561045457600080fd5b50610468610463366004612474565b610d78565b60405161025992919061286f565b34801561048257600080fd5b506102827f000000000000000000000000000000000000000000000000000000000000000081565b3480156104b657600080fd5b5061043b610e10565b3480156104cb57600080fd5b5060065461028290600160201b90046001600160a01b031681565b3480156104f257600080fd5b5061024f610f16565b34801561050757600080fd5b5061022d61051636600461288a565b610fa5565b34801561052757600080fd5b5061024f600e5481565b34801561053d57600080fd5b50600354610282906001600160a01b031681565b61022d61055f3660046128af565b610ffa565b34801561057057600080fd5b5061058461057f366004612652565b611066565b604051610259919061296a565b61022d61059f366004612979565b611182565b3480156105b057600080fd5b5061022d6105bf366004612652565b611346565b3480156105d057600080fd5b5061022d6105df366004612a18565b61137c565b3480156105f057600080fd5b50600254610282906001600160a01b031681565b34801561061057600080fd5b506000546102f39062ffffff1681565b34801561062c57600080fd5b5061024f60015481565b34801561064257600080fd5b506102827f000000000000000000000000000000000000000000000000000000000000000081565b61037b61067836600461266b565b6113cf565b34801561068957600080fd5b5061022d610698366004612a18565b611775565b3480156106a957600080fd5b506102827f000000000000000000000000000000000000000000000000000000000000000081565b3480156106dd57600080fd5b5061022d6106ec36600461288a565b6117c8565b61022d6106ff366004612a35565b611813565b34801561071057600080fd5b5061072461071f366004612a18565b611976565b6040516102599190612ac1565b34801561073d57600080fd5b5061022d61074c366004612a18565b6119e2565b34801561075d57600080fd5b5061024f61076c36600461241f565b611a35565b34801561077d57600080fd5b5061024f60075481565b34801561079357600080fd5b506107a76107a2366004612b0f565b611b8a565b6040516102599190612c08565b600b60205281600052604060002081815481106107d057600080fd5b90600052602060002001600091509150505481565b600654600160201b90046001600160a01b0316331461081f5760405162461bcd60e51b815260040161081690612c1b565b60405180910390fd5b600580546001600160601b03909216600160a01b026001600160a01b03909216919091179055565b600080808080808080808061085e8b8d018d61266b565b99509950995099509950995099509950995099506108848a8a8a8a8a8a8a8a8a8a610c49565b505050505050505050505050565b6000828152600a60205260408120546001600160a01b038381169116146108f15760405162461bcd60e51b8152602060048201526013602482015272556e617574686f72697a656420656e7469747960681b6044820152606401610816565b60005b600c54811015610b365783600c828154811061091257610912612c48565b90600052602060002090600b02016000015403610b24576000600c828154811061093e5761093e612c48565b90600052602060002090600b020160080160006101000a81548160ff02191690831515021790555042600c828154811061097a5761097a612c48565b90600052602060002090600b0201600a0181905550600d600c82815481106109a4576109a4612c48565b6000918252602080832084546001808201875595855291909320600b9283029093018054929091029092019081558183015492810180546001600160a01b039485166001600160a01b03199182161790915560028084015490830180549186169183169190911790556003808401549083015560048084015490830155600580840154908301805491861691831691909117905560068084015490830180549190951691161790925560078082015490830155600880820154908301805460ff191660ff909216151591909117905560098082015490830155600a90810154910155600c805482908110610a9a57610a9a612c48565b60009182526020808320600b9092029091018281556001810180546001600160a01b031990811690915560028201805482169055600382018490556004820184905560058201805482169055600682018054821690556007820184905560088201805460ff1916905560098201849055600a91820184905587845291526040909120805490911690555b80610b2e81612c74565b9150506108f4565b50610b418284611d4a565b60088054906000610b5183612c74565b909155505060078054906000610b6683612c8d565b90915550506040516e11195c1bdcda5d0811115311551151608a1b81526001600160a01b03831690600f0160408051918290038220600083524260208401529186917fa5a5bd98656058fc95e51c484e0ff0e44860d2f24b8b3be493e84bf30af1efb7910160405180910390a45060015b92915050565b60005b8881101561088457610c378c8c8c8c85818110610bff57610bff612c48565b905060200201358b8b86818110610c1857610c18612c48565b9050602002016020810190610c2d9190612a18565b8a8a8a8a8a611182565b80610c4181612c74565b915050610be0565b86600e5413610c7957600e546040516318050f9b60e11b8152600481019190915260248101889052604401610816565b610c8a8a8a8a898989898989611182565b50505050505050505050565b6060600c805480602002602001604051908101604052809291908181526020016000905b82821015610d6f5760008481526020908190206040805161016081018252600b8602909201805483526001808201546001600160a01b0390811685870152600283015481169385019390935260038201546060850152600482015460808501526005820154831660a0850152600682015490921660c0840152600781015460e0840152600881015460ff1615156101008401526009810154610120840152600a01546101408301529083529092019101610cba565b50505050905090565b6000606081808080808080808080610d928d8f018f61266b565b995099509950995099509950995099509950995086600e5412159b508b8e8e81818080601f016020809104026020016040519081016040528093929190818152602001838380828437600081840152601f19601f82011690508083019250505050505050905090509b509b50505050505050505050505b9250929050565b600654606090600160201b90046001600160a01b03163314610e445760405162461bcd60e51b815260040161081690612c1b565b600d80546040805160208084028201810190925282815292919060009084018215610d6f5760008481526020908190206040805161016081018252600b8602909201805483526001808201546001600160a01b0390811685870152600283015481169385019390935260038201546060850152600482015460808501526005820154831660a0850152600682015490921660c0840152600781015460e0840152600881015460ff1615156101008401526009810154610120840152600a01546101408301529083529092019101610cba565b600080600080600080600460009054906101000a90046001600160a01b03166001600160a01b031663feaf968c6040518163ffffffff1660e01b815260040160a060405180830381865afa158015610f72573d6000803e3d6000fd5b505050506040513d601f19601f82011682018060405250810190610f969190612cbe565b50919998505050505050505050565b600654600160201b90046001600160a01b03163314610fd65760405162461bcd60e51b815260040161081690612c1b565b6000805462ffffff90921663010000000265ffffff00000019909216919091179055565b60005b88811015610884576110548c8c8c8c8581811061101c5761101c612c48565b905060200201358b8b8b8781811061103657611036612c48565b905060200201602081019061104b9190612a18565b8a8a8a8a611182565b8061105e81612c74565b915050610ffd565b61106e612377565b611076612377565b60005b600c5481101561117b5783600c828154811061109757611097612c48565b90600052602060002090600b0201600001540361116957600c81815481106110c1576110c1612c48565b60009182526020918290206040805161016081018252600b9093029091018054835260018101546001600160a01b0390811694840194909452600281015484169183019190915260038101546060830152600481015460808301526005810154831660a0830152600681015490921660c0820152600782015460e0820152600882015460ff1615156101008201526009820154610120820152600a9091015461014082015291505b8061117381612c74565b915050611079565b5092915050565b600087116111d25760405162461bcd60e51b815260206004820152601d60248201527f416d6f756e74206d7573742062652067726561746572207468616e20300000006044820152606401610816565b846001600160a01b0316866001600160a01b03160361123f5760405162461bcd60e51b8152602060048201526024808201527f46726f6d20616e6420546f20746f6b656e73206d7573742062652064696666656044820152631c995b9d60e21b6064820152608401610816565b6000841161128f5760405162461bcd60e51b815260206004820152601f60248201527f546f20636861696e206d7573742062652067726561746572207468616e2030006044820152606401610816565b61012c600061129e888a611a35565b6002549091506112bf908b9087906001600160a01b0316848689898e611813565b6040517f4465706f7369742043524541544544202620455845435554454400000000000081526001600160a01b038c1690601a016040805191829003822060095460018452426020850152909290917fa5a5bd98656058fc95e51c484e0ff0e44860d2f24b8b3be493e84bf30af1efb7910160405180910390a45050505050505050505050565b600654600160201b90046001600160a01b031633146113775760405162461bcd60e51b815260040161081690612c1b565b600e55565b600654600160201b90046001600160a01b031633146113ad5760405162461bcd60e51b815260040161081690612c1b565b600280546001600160a01b0319166001600160a01b0392909216919091179055565b60098054600091826113e083612c74565b91905055508a600a6000600954815260200190815260200160002060006101000a8154816001600160a01b0302191690836001600160a01b03160217905550600b60008c6001600160a01b03166001600160a01b0316815260200190815260200160002060095490806001815401808255809150506001900390600052602060002001600090919091909150556007600081548092919061148090612c74565b91905055506114978b8b8b8b8b8b8b8b8b8b611e34565b50604080516101608101825260095481526001600160a01b038d8116602083018181528e8316848601908152606085018f8152608086018f81528e861660a088019081528e871660c0890190815260e089018f815260016101008b01818152426101208d018181526101408e01918252600c805494850181556000529c517fdf6966c971051c3d54ec59162606531493a51404a002842f56009d7e5cf4a8c7600b9094029384015598517fdf6966c971051c3d54ec59162606531493a51404a002842f56009d7e5cf4a8c8830180546001600160a01b0319908116928e1692909217905597517fdf6966c971051c3d54ec59162606531493a51404a002842f56009d7e5cf4a8c9830180548a16918d1691909117905595517fdf6966c971051c3d54ec59162606531493a51404a002842f56009d7e5cf4a8ca82015593517fdf6966c971051c3d54ec59162606531493a51404a002842f56009d7e5cf4a8cb85015591517fdf6966c971051c3d54ec59162606531493a51404a002842f56009d7e5cf4a8cc840180548716918a16919091179055517fdf6966c971051c3d54ec59162606531493a51404a002842f56009d7e5cf4a8cd8301805490951697169690961790925593517fdf6966c971051c3d54ec59162606531493a51404a002842f56009d7e5cf4a8ce82015592517fdf6966c971051c3d54ec59162606531493a51404a002842f56009d7e5cf4a8cf8401805460ff191691151591909117905592517fdf6966c971051c3d54ec59162606531493a51404a002842f56009d7e5cf4a8d083015591517fdf6966c971051c3d54ec59162606531493a51404a002842f56009d7e5cf4a8d19091015590516e11195c1bdcda5d0810d49150551151608a1b8152600f016040805191829003822060095460018452426020850152909290917fa5a5bd98656058fc95e51c484e0ff0e44860d2f24b8b3be493e84bf30af1efb7910160405180910390a45060019a9950505050505050505050565b600654600160201b90046001600160a01b031633146117a65760405162461bcd60e51b815260040161081690612c1b565b600380546001600160a01b0319166001600160a01b0392909216919091179055565b600654600160201b90046001600160a01b031633146117f95760405162461bcd60e51b815260040161081690612c1b565b6000805462ffffff191662ffffff92909216919091179055565b60405163095ea7b360e01b81526001600160a01b037f0000000000000000000000000000000000000000000000000000000000000000811660048301526024820187905287919082169063095ea7b3906044016020604051808303816000875af1158015611885573d6000803e3d6000fd5b505050506040513d601f19601f820116820180604052508101906118a99190612d0e565b50604080516001600160a01b038b811660208301528481168284015282518083038401815260608301938490526345560b5d60e11b9093527f00000000000000000000000000000000000000000000000000000000000000001690638aac16ba908790611926908d9089908e9033908f908f908b90606401612d30565b60206040518083038185885af1158015611944573d6000803e3d6000fd5b50505050506040513d601f19601f820116820180604052508101906119699190612d8b565b5050505050505050505050565b6001600160a01b0381166000908152600b60209081526040918290208054835181840281018401909452808452606093928301828280156119d657602002820191906000526020600020905b8154815260200190600101908083116119c2575b50505050509050919050565b600654600160201b90046001600160a01b03163314611a135760405162461bcd60e51b815260040161081690612c1b565b600580546001600160a01b0319166001600160a01b0392909216919091179055565b6000611a62837f0000000000000000000000000000000000000000000000000000000000000000846120c3565b6040805160a081018252600080546003546002546bffffffffffffffffffffffff1960608a811b821660c08801526001600160e81b031960e886811b821660d48a015294821b831660d7890152630100000090950490931b90931660eb860152811b90911660ee840152835180840360e2018152610102840185528352306020840152428385015282018590526080820152905163c04b8d5960e01b81526001600160a01b037f0000000000000000000000000000000000000000000000000000000000000000169063c04b8d5990611b3f908490600401612da4565b6020604051808303816000875af1158015611b5e573d6000803e3d6000fd5b505050506040513d601f19601f82011682018060405250810190611b829190612d8b565b949350505050565b606060008083806020019051810190611ba39190612dfc565b6002549193509150611bdf906001600160a01b03167f00000000000000000000000000000000000000000000000000000000000000008a6120c3565b60408051610100810182526002546001600160a01b0390811682528381166020830152600080546301000000900462ffffff16938301939093528416606082015260808101611c3042610e10612e2b565b815260208082018c9052600060408084018290526060938401829052805163414bf38960e01b815285516001600160a01b03908116600483015293860151841660248201529085015162ffffff16604482015292840151821660648401526080840151608484015260a084015160a484015260c084015160c484015260e0840151821660e48401529293507f0000000000000000000000000000000000000000000000000000000000000000169063414bf38990610104016020604051808303816000875af1158015611d07573d6000803e3d6000fd5b505050506040513d601f19601f82011682018060405250810190611d2b9190612d8b565b50506040805160208101909152600081529a9950505050505050505050565b6001600160a01b0382166000908152600b60205260409020548110611d6e57600080fd5b6001600160a01b0382166000908152600b602052604090208054611d9490600190612e3e565b81548110611da457611da4612c48565b9060005260206000200154600b6000846001600160a01b03166001600160a01b031681526020019081526020016000208281548110611de557611de5612c48565b60009182526020808320909101929092556001600160a01b0384168152600b90915260409020805480611e1a57611e1a612e51565b600190038181906000526020600020016000905590555050565b604080516001600160a01b038c811660208301528b811682840152606082018b9052608082018a905288811660a083015287811660c083015260e0820187905263ffffffff861661010083015261012082018590528316610140808301919091528251808303909101815261026082019092526000919082906101600180611ebb8f6121c3565b604051602001611ecb9190612e67565b60408051601f1981840301815291815290825280518082018252600280825261060f60f31b60208381018290528581019390935230858501819052620f42406060870152608086015260a08501889052835180850185529182529181019190915260c08301526005546001600160601b03600160a01b9091041660e09283015290820151905163095ea7b360e01b81529192507f00000000000000000000000000000000000000000000000000000000000000006001600160a01b03169163095ea7b391611fdb917f000000000000000000000000000000000000000000000000000000000000000091906004016001600160a01b039290921682526001600160601b0316602082015260400190565b6020604051808303816000875af1158015611ffa573d6000803e3d6000fd5b505050506040513d601f19601f8201168201806040525081019061201e9190612d0e565b5060405163022de76960e21b81526000906001600160a01b037f000000000000000000000000000000000000000000000000000000000000000016906308b79da49061206e908590600401612e99565b6020604051808303816000875af115801561208d573d6000803e3d6000fd5b505050506040513d601f19601f820116820180604052508101906120b19190612d8b565b9e9d5050505050505050505050505050565b604080516001600160a01b038481166024830152604480830185905283518084039091018152606490920183526020820180516001600160e01b031663095ea7b360e01b179052915160009283929087169161211f9190612f7c565b6000604051808303816000865af19150503d806000811461215c576040519150601f19603f3d011682016040523d82523d6000602084013e612161565b606091505b509150915081801561218b57508051158061218b57508080602001905181019061218b9190612d0e565b6121bc5760405162461bcd60e51b8152602060048201526002602482015261534160f01b6044820152606401610816565b5050505050565b6060610bd76001600160a01b0383166014606060006121e3836002612f98565b6121ee906002612e2b565b67ffffffffffffffff81111561220657612206612af9565b6040519080825280601f01601f191660200182016040528015612230576020820181803683370190505b509050600360fc1b8160008151811061224b5761224b612c48565b60200101906001600160f81b031916908160001a905350600f60fb1b8160018151811061227a5761227a612c48565b60200101906001600160f81b031916908160001a905350600061229e846002612f98565b6122a9906001612e2b565b90505b6001811115612321576f181899199a1a9b1b9c1cb0b131b232b360811b85600f16601081106122dd576122dd612c48565b1a60f81b8282815181106122f3576122f3612c48565b60200101906001600160f81b031916908160001a90535060049490941c9361231a81612c8d565b90506122ac565b5083156123705760405162461bcd60e51b815260206004820181905260248201527f537472696e67733a20686578206c656e67746820696e73756666696369656e746044820152606401610816565b9392505050565b6040518061016001604052806000815260200160006001600160a01b0316815260200160006001600160a01b03168152602001600081526020016000815260200160006001600160a01b0316815260200160006001600160a01b031681526020016000815260200160001515815260200160008152602001600081525090565b6001600160a01b038116811461240c57600080fd5b50565b803561241a816123f7565b919050565b6000806040838503121561243257600080fd5b823561243d816123f7565b946020939093013593505050565b60006020828403121561245d57600080fd5b81356001600160601b038116811461237057600080fd5b6000806020838503121561248757600080fd5b823567ffffffffffffffff8082111561249f57600080fd5b818501915085601f8301126124b357600080fd5b8135818111156124c257600080fd5b8660208285010111156124d457600080fd5b60209290920196919550909350505050565b600080604083850312156124f957600080fd5b82359150602083013561250b816123f7565b809150509250929050565b60008083601f84011261252857600080fd5b50813567ffffffffffffffff81111561254057600080fd5b6020830191508360208260051b8501011115610e0957600080fd5b803563ffffffff8116811461241a57600080fd5b60008060008060008060008060008060006101208c8e03121561259157600080fd5b61259b8c356123f7565b8b359a506125ac60208d01356123f7565b60208c0135995067ffffffffffffffff8060408e013511156125cd57600080fd5b6125dd8e60408f01358f01612516565b909a50985060608d01358110156125f357600080fd5b506126048d60608e01358e01612516565b909750955061261560808d0161240f565b945060a08c0135935061262a60c08d0161255b565b925060e08c013591506126406101008d0161240f565b90509295989b509295989b9093969950565b60006020828403121561266457600080fd5b5035919050565b6000806000806000806000806000806101408b8d03121561268b57600080fd5b8a35612696816123f7565b995060208b01356126a6816123f7565b985060408b0135975060608b0135965060808b01356126c4816123f7565b955060a08b01356126d4816123f7565b945060c08b013593506126e960e08c0161255b565b92506101008b013591506101208b0135612702816123f7565b809150509295989b9194979a5092959850565b80518252602081015161273360208401826001600160a01b03169052565b50604081015161274e60408401826001600160a01b03169052565b50606081015160608301526080810151608083015260a081015161277d60a08401826001600160a01b03169052565b5060c081015161279860c08401826001600160a01b03169052565b5060e081015160e0830152610100808201516127b78285018215159052565b5050610120818101519083015261014090810151910152565b6020808252825182820181905260009190848201906040850190845b81811015612813576127ff838551612715565b9284019261016092909201916001016127ec565b50909695505050505050565b60005b8381101561283a578181015183820152602001612822565b50506000910152565b6000815180845261285b81602086016020860161281f565b601f01601f19169290920160200192915050565b8215158152604060208201526000611b826040830184612843565b60006020828403121561289c57600080fd5b813562ffffff8116811461237057600080fd5b60008060008060008060008060008060006101208c8e0312156128d157600080fd5b6128db8c356123f7565b8b359a506128ec60208d01356123f7565b60208c0135995067ffffffffffffffff8060408e0135111561290d57600080fd5b61291d8e60408f01358f01612516565b909a50985061292e60608e0161240f565b97508060808e0135111561294157600080fd5b506129528d60808e01358e01612516565b909650945060a08c0135935061262a60c08d0161255b565b6101608101610bd78284612715565b60008060008060008060008060006101208a8c03121561299857600080fd5b89356129a3816123f7565b985060208a01356129b3816123f7565b975060408a0135965060608a01356129ca816123f7565b955060808a01356129da816123f7565b945060a08a013593506129ef60c08b0161255b565b925060e08a013591506101008a0135612a07816123f7565b809150509295985092959850929598565b600060208284031215612a2a57600080fd5b8135612370816123f7565b600080600080600080600080610100898b031215612a5257600080fd5b8835612a5d816123f7565b9750612a6b60208a0161255b565b96506040890135612a7b816123f7565b9550606089013594506080890135935060a0890135925060c0890135612aa0816123f7565b915060e0890135612ab0816123f7565b809150509295985092959890939650565b6020808252825182820181905260009190848201906040850190845b8181101561281357835183529284019291840191600101612add565b634e487b7160e01b600052604160045260246000fd5b60008060008060008060c08789031215612b2857600080fd5b86359550602087013594506040870135612b41816123f7565b93506060870135612b51816123f7565b9250612b5f6080880161255b565b915060a087013567ffffffffffffffff80821115612b7c57600080fd5b818901915089601f830112612b9057600080fd5b813581811115612ba257612ba2612af9565b604051601f8201601f19908116603f01168101908382118183101715612bca57612bca612af9565b816040528281528c6020848701011115612be357600080fd5b8260208601602083013760006020848301015280955050505050509295509295509295565b6020815260006123706020830184612843565b6020808252601390820152724f776e6572207265736572766564206f6e6c7960681b604082015260600190565b634e487b7160e01b600052603260045260246000fd5b634e487b7160e01b600052601160045260246000fd5b600060018201612c8657612c86612c5e565b5060010190565b600081612c9c57612c9c612c5e565b506000190190565b805169ffffffffffffffffffff8116811461241a57600080fd5b600080600080600060a08688031215612cd657600080fd5b612cdf86612ca4565b9450602086015193506040860151925060608601519150612d0260808701612ca4565b90509295509295909350565b600060208284031215612d2057600080fd5b8151801515811461237057600080fd5b63ffffffff881681526001600160a01b0387811660208301528681166040830152851660608201526080810184905260a0810183905260e060c08201819052600090612d7e90830184612843565b9998505050505050505050565b600060208284031215612d9d57600080fd5b5051919050565b602081526000825160a06020840152612dc060c0840182612843565b905060018060a01b0360208501511660408401526040840151606084015260608401516080840152608084015160a08401528091505092915050565b60008060408385031215612e0f57600080fd5b8251612e1a816123f7565b602084015190925061250b816123f7565b80820180821115610bd757610bd7612c5e565b81810381811115610bd757610bd7612c5e565b634e487b7160e01b600052603160045260246000fd5b692634b6b4ba27b93232b960b11b815260008251612e8c81600a85016020870161281f565b91909101600a0192915050565b6020815260008251610100806020850152612eb8610120850183612843565b91506020850151601f1980868503016040870152612ed68483612843565b935060408701519150612ef460608701836001600160a01b03169052565b606087015163ffffffff81166080880152915060808701516001600160a01b03811660a0880152915060a08701519150808685030160c0870152612f388483612843565b935060c08701519150808685030160e087015250612f568382612843565b92505060e0850151612f72828601826001600160601b03169052565b5090949350505050565b60008251612f8e81846020870161281f565b9190910192915050565b8082028115828204841417610bd757610bd7612c5e56fea264697066735822122035dd82164c65068a699d866f69d724b287d83cc99ed1b2053deec6883643052464736f6c63430008110033",
  "linkReferences": {},
  "deployedLinkReferences": {}
}