{
  "_format": "hh-sol-artifact-1",
  "contractName": "AutoLimitXSwap",
  "sourceName": "contracts/AutoLimitXSwap.sol",
  "abi": [
    {
      "inputs": [
        {
          "internalType": "contract IConnext",
          "name": "_connext",
          "type": "address"
        },
        {
          "internalType": "contract ISwapRouter",
          "name": "_swapRouter",
          "type": "address"
        },
        {
          "internalType": "contract LinkTokenInterface",
          "name": "_link",
          "type": "address"
        },
        {
          "internalType": "contract KeeperRegistrarInterface",
          "name": "_registrar",
          "type": "address"
        },
        {
          "internalType": "address",
          "name": "_wethAddress",
          "type": "address"
        },
        {
          "internalType": "address",
          "name": "_nativeAddress",
          "type": "address"
        }
      ],
      "stateMutability": "nonpayable",
      "type": "constructor"
    },
    {
      "inputs": [
        {
          "internalType": "int256",
          "name": "",
          "type": "int256"
        },
        {
          "internalType": "int256",
          "name": "",
          "type": "int256"
        }
      ],
      "name": "CONDITION_NOT_MET",
      "type": "error"
    },
    {
      "anonymous": false,
      "inputs": [
        {
          "indexed": true,
          "internalType": "uint256",
          "name": "DepositId",
          "type": "uint256"
        },
        {
          "indexed": true,
          "internalType": "string",
          "name": "actionType",
          "type": "string"
        },
        {
          "indexed": false,
          "internalType": "bool",
          "name": "isActive",
          "type": "bool"
        },
        {
          "indexed": true,
          "internalType": "address",
          "name": "author",
          "type": "address"
        },
        {
          "indexed": false,
          "internalType": "uint256",
          "name": "timestamp",
          "type": "uint256"
        }
      ],
      "name": "Action",
      "type": "event"
    },
    {
      "stateMutability": "payable",
      "type": "fallback"
    },
    {
      "inputs": [
        {
          "internalType": "address",
          "name": "",
          "type": "address"
        },
        {
          "internalType": "uint256",
          "name": "",
          "type": "uint256"
        }
      ],
      "name": "DepositsOf",
      "outputs": [
        {
          "internalType": "uint256",
          "name": "",
          "type": "uint256"
        }
      ],
      "stateMutability": "view",
      "type": "function"
    },
    {
      "inputs": [],
      "name": "NATIVE",
      "outputs": [
        {
          "internalType": "address",
          "name": "",
          "type": "address"
        }
      ],
      "stateMutability": "view",
      "type": "function"
    },
    {
      "inputs": [],
      "name": "WETH",
      "outputs": [
        {
          "internalType": "address",
          "name": "",
          "type": "address"
        }
      ],
      "stateMutability": "view",
      "type": "function"
    },
    {
      "inputs": [],
      "name": "activeDepositCounter",
      "outputs": [
        {
          "internalType": "uint256",
          "name": "",
          "type": "uint256"
        }
      ],
      "stateMutability": "view",
      "type": "function"
    },
    {
      "inputs": [
        {
          "internalType": "uint256",
          "name": "",
          "type": "uint256"
        }
      ],
      "name": "authorOf",
      "outputs": [
        {
          "internalType": "address",
          "name": "",
          "type": "address"
        }
      ],
      "stateMutability": "view",
      "type": "function"
    },
    {
      "inputs": [
        {
          "internalType": "int256",
          "name": "_price",
          "type": "int256"
        }
      ],
      "name": "changePrice",
      "outputs": [],
      "stateMutability": "nonpayable",
      "type": "function"
    },
    {
      "inputs": [
        {
          "internalType": "bytes",
          "name": "checkData",
          "type": "bytes"
        }
      ],
      "name": "checkUpkeep",
      "outputs": [
        {
          "internalType": "bool",
          "name": "upkeepNeeded",
          "type": "bool"
        },
        {
          "internalType": "bytes",
          "name": "performData",
          "type": "bytes"
        }
      ],
      "stateMutability": "view",
      "type": "function"
    },
    {
      "inputs": [],
      "name": "connext",
      "outputs": [
        {
          "internalType": "contract IConnext",
          "name": "",
          "type": "address"
        }
      ],
      "stateMutability": "view",
      "type": "function"
    },
    {
      "inputs": [
        {
          "internalType": "address",
          "name": "_from",
          "type": "address"
        },
        {
          "internalType": "address",
          "name": "_to",
          "type": "address"
        },
        {
          "internalType": "uint256",
          "name": "_amount",
          "type": "uint256"
        },
        {
          "internalType": "int256",
          "name": "_price",
          "type": "int256"
        },
        {
          "internalType": "address",
          "name": "_fromToken",
          "type": "address"
        },
        {
          "internalType": "address",
          "name": "_toToken",
          "type": "address"
        },
        {
          "internalType": "uint256",
          "name": "_toChain",
          "type": "uint256"
        },
        {
          "internalType": "uint32",
          "name": "destinationDomain",
          "type": "uint32"
        },
        {
          "internalType": "uint256",
          "name": "relayerFee",
          "type": "uint256"
        },
        {
          "internalType": "address",
          "name": "_destinationContractAddress",
          "type": "address"
        }
      ],
      "name": "createDeposit",
      "outputs": [
        {
          "internalType": "bool",
          "name": "",
          "type": "bool"
        }
      ],
      "stateMutability": "payable",
      "type": "function"
    },
    {
      "inputs": [
        {
          "internalType": "uint256",
          "name": "DepositId",
          "type": "uint256"
        },
        {
          "internalType": "address",
          "name": "_from",
          "type": "address"
        }
      ],
      "name": "deleteDeposit",
      "outputs": [
        {
          "internalType": "bool",
          "name": "",
          "type": "bool"
        }
      ],
      "stateMutability": "nonpayable",
      "type": "function"
    },
    {
      "inputs": [
        {
          "internalType": "address",
          "name": "_from",
          "type": "address"
        },
        {
          "internalType": "address",
          "name": "_to",
          "type": "address"
        },
        {
          "internalType": "uint256",
          "name": "_amount",
          "type": "uint256"
        },
        {
          "internalType": "int256",
          "name": "_price",
          "type": "int256"
        },
        {
          "internalType": "address",
          "name": "_fromToken",
          "type": "address"
        },
        {
          "internalType": "address",
          "name": "_toToken",
          "type": "address"
        },
        {
          "internalType": "uint256",
          "name": "_toChain",
          "type": "uint256"
        },
        {
          "internalType": "uint32",
          "name": "destinationDomain",
          "type": "uint32"
        },
        {
          "internalType": "uint256",
          "name": "relayerFee",
          "type": "uint256"
        },
        {
          "internalType": "address",
          "name": "_destinationContractAddress",
          "type": "address"
        }
      ],
      "name": "executeLimitOrder",
      "outputs": [],
      "stateMutability": "payable",
      "type": "function"
    },
    {
      "inputs": [
        {
          "internalType": "address",
          "name": "_from",
          "type": "address"
        },
        {
          "internalType": "address",
          "name": "_to",
          "type": "address"
        },
        {
          "internalType": "uint256[]",
          "name": "_amounts",
          "type": "uint256[]"
        },
        {
          "internalType": "address",
          "name": "_fromToken",
          "type": "address"
        },
        {
          "internalType": "address[]",
          "name": "_toTokens",
          "type": "address[]"
        },
        {
          "internalType": "uint256",
          "name": "_toChain",
          "type": "uint256"
        },
        {
          "internalType": "uint32",
          "name": "_destinationDomain",
          "type": "uint32"
        },
        {
          "internalType": "uint256",
          "name": "relayerFee",
          "type": "uint256"
        },
        {
          "internalType": "address",
          "name": "_destinationContractAddress",
          "type": "address"
        }
      ],
      "name": "executeMultipleOrderToMany",
      "outputs": [],
      "stateMutability": "payable",
      "type": "function"
    },
    {
      "inputs": [
        {
          "internalType": "address",
          "name": "_from",
          "type": "address"
        },
        {
          "internalType": "address",
          "name": "_to",
          "type": "address"
        },
        {
          "internalType": "uint256[]",
          "name": "_amounts",
          "type": "uint256[]"
        },
        {
          "internalType": "address[]",
          "name": "_fromTokens",
          "type": "address[]"
        },
        {
          "internalType": "address",
          "name": "_toToken",
          "type": "address"
        },
        {
          "internalType": "uint256",
          "name": "_toChain",
          "type": "uint256"
        },
        {
          "internalType": "uint32",
          "name": "_destinationDomain",
          "type": "uint32"
        },
        {
          "internalType": "uint256",
          "name": "relayerFee",
          "type": "uint256"
        },
        {
          "internalType": "address",
          "name": "_destinationContractAddress",
          "type": "address"
        }
      ],
      "name": "executeMultipleOrderToOne",
      "outputs": [],
      "stateMutability": "payable",
      "type": "function"
    },
    {
      "inputs": [
        {
          "internalType": "address",
          "name": "_from",
          "type": "address"
        },
        {
          "internalType": "address",
          "name": "_to",
          "type": "address"
        },
        {
          "internalType": "uint256",
          "name": "_amount",
          "type": "uint256"
        },
        {
          "internalType": "address",
          "name": "_fromToken",
          "type": "address"
        },
        {
          "internalType": "address",
          "name": "_toToken",
          "type": "address"
        },
        {
          "internalType": "uint256",
          "name": "_toChain",
          "type": "uint256"
        },
        {
          "internalType": "uint32",
          "name": "destinationDomain",
          "type": "uint32"
        },
        {
          "internalType": "uint256",
          "name": "relayerFee",
          "type": "uint256"
        },
        {
          "internalType": "address",
          "name": "_destinationContractAddress",
          "type": "address"
        }
      ],
      "name": "executeOrder",
      "outputs": [],
      "stateMutability": "payable",
      "type": "function"
    },
    {
      "inputs": [],
      "name": "getDeletedDeposit",
      "outputs": [
        {
          "components": [
            {
              "internalType": "uint256",
              "name": "DepositId",
              "type": "uint256"
            },
            {
              "internalType": "address",
              "name": "from",
              "type": "address"
            },
            {
              "internalType": "address",
              "name": "to",
              "type": "address"
            },
            {
              "internalType": "uint256",
              "name": "amount",
              "type": "uint256"
            },
            {
              "internalType": "int256",
              "name": "price",
              "type": "int256"
            },
            {
              "internalType": "address",
              "name": "fromToken",
              "type": "address"
            },
            {
              "internalType": "address",
              "name": "toToken",
              "type": "address"
            },
            {
              "internalType": "uint256",
              "name": "toChain",
              "type": "uint256"
            },
            {
              "internalType": "bool",
              "name": "isActive",
              "type": "bool"
            },
            {
              "internalType": "uint256",
              "name": "created",
              "type": "uint256"
            },
            {
              "internalType": "uint256",
              "name": "updated",
              "type": "uint256"
            }
          ],
          "internalType": "struct AutoLimitXSwap.DepositStruct[]",
          "name": "",
          "type": "tuple[]"
        }
      ],
      "stateMutability": "view",
      "type": "function"
    },
    {
      "inputs": [],
      "name": "getDeposits",
      "outputs": [
        {
          "components": [
            {
              "internalType": "uint256",
              "name": "DepositId",
              "type": "uint256"
            },
            {
              "internalType": "address",
              "name": "from",
              "type": "address"
            },
            {
              "internalType": "address",
              "name": "to",
              "type": "address"
            },
            {
              "internalType": "uint256",
              "name": "amount",
              "type": "uint256"
            },
            {
              "internalType": "int256",
              "name": "price",
              "type": "int256"
            },
            {
              "internalType": "address",
              "name": "fromToken",
              "type": "address"
            },
            {
              "internalType": "address",
              "name": "toToken",
              "type": "address"
            },
            {
              "internalType": "uint256",
              "name": "toChain",
              "type": "uint256"
            },
            {
              "internalType": "bool",
              "name": "isActive",
              "type": "bool"
            },
            {
              "internalType": "uint256",
              "name": "created",
              "type": "uint256"
            },
            {
              "internalType": "uint256",
              "name": "updated",
              "type": "uint256"
            }
          ],
          "internalType": "struct AutoLimitXSwap.DepositStruct[]",
          "name": "",
          "type": "tuple[]"
        }
      ],
      "stateMutability": "view",
      "type": "function"
    },
    {
      "inputs": [],
      "name": "getLatestPrice",
      "outputs": [
        {
          "internalType": "int256",
          "name": "",
          "type": "int256"
        }
      ],
      "stateMutability": "view",
      "type": "function"
    },
    {
      "inputs": [],
      "name": "honeySwapRouter2",
      "outputs": [
        {
          "internalType": "contract IUniswapV2Router02",
          "name": "",
          "type": "address"
        }
      ],
      "stateMutability": "view",
      "type": "function"
    },
    {
      "inputs": [],
      "name": "i_link",
      "outputs": [
        {
          "internalType": "contract LinkTokenInterface",
          "name": "",
          "type": "address"
        }
      ],
      "stateMutability": "view",
      "type": "function"
    },
    {
      "inputs": [],
      "name": "i_registrar",
      "outputs": [
        {
          "internalType": "contract KeeperRegistrarInterface",
          "name": "",
          "type": "address"
        }
      ],
      "stateMutability": "view",
      "type": "function"
    },
    {
      "inputs": [],
      "name": "inactiveDepositCounter",
      "outputs": [
        {
          "internalType": "uint256",
          "name": "",
          "type": "uint256"
        }
      ],
      "stateMutability": "view",
      "type": "function"
    },
    {
      "inputs": [],
      "name": "out",
      "outputs": [
        {
          "internalType": "uint256",
          "name": "",
          "type": "uint256"
        }
      ],
      "stateMutability": "view",
      "type": "function"
    },
    {
      "inputs": [],
      "name": "owner",
      "outputs": [
        {
          "internalType": "address",
          "name": "",
          "type": "address"
        }
      ],
      "stateMutability": "view",
      "type": "function"
    },
    {
      "inputs": [
        {
          "internalType": "bytes",
          "name": "performData",
          "type": "bytes"
        }
      ],
      "name": "performUpkeep",
      "outputs": [],
      "stateMutability": "nonpayable",
      "type": "function"
    },
    {
      "inputs": [],
      "name": "poolFee1",
      "outputs": [
        {
          "internalType": "uint24",
          "name": "",
          "type": "uint24"
        }
      ],
      "stateMutability": "view",
      "type": "function"
    },
    {
      "inputs": [],
      "name": "poolFee2",
      "outputs": [
        {
          "internalType": "uint24",
          "name": "",
          "type": "uint24"
        }
      ],
      "stateMutability": "view",
      "type": "function"
    },
    {
      "inputs": [],
      "name": "price",
      "outputs": [
        {
          "internalType": "int256",
          "name": "",
          "type": "int256"
        }
      ],
      "stateMutability": "view",
      "type": "function"
    },
    {
      "inputs": [
        {
          "internalType": "address",
          "name": "_RouterAddress",
          "type": "address"
        }
      ],
      "name": "setHoneySwapRouter2",
      "outputs": [],
      "stateMutability": "nonpayable",
      "type": "function"
    },
    {
      "inputs": [
        {
          "internalType": "address",
          "name": "nativeAddress",
          "type": "address"
        }
      ],
      "name": "setNativeAddress",
      "outputs": [],
      "stateMutability": "nonpayable",
      "type": "function"
    },
    {
      "inputs": [
        {
          "internalType": "uint24",
          "name": "_poolFee1",
          "type": "uint24"
        }
      ],
      "name": "setPoolFee1",
      "outputs": [],
      "stateMutability": "nonpayable",
      "type": "function"
    },
    {
      "inputs": [
        {
          "internalType": "uint24",
          "name": "_poolFee2",
          "type": "uint24"
        }
      ],
      "name": "setPoolFee2",
      "outputs": [],
      "stateMutability": "nonpayable",
      "type": "function"
    },
    {
      "inputs": [
        {
          "internalType": "address",
          "name": "wethAddress",
          "type": "address"
        }
      ],
      "name": "setWethAddress",
      "outputs": [],
      "stateMutability": "nonpayable",
      "type": "function"
    },
    {
      "inputs": [
        {
          "internalType": "uint256",
          "name": "DepositId",
          "type": "uint256"
        }
      ],
      "name": "showDeposit",
      "outputs": [
        {
          "components": [
            {
              "internalType": "uint256",
              "name": "DepositId",
              "type": "uint256"
            },
            {
              "internalType": "address",
              "name": "from",
              "type": "address"
            },
            {
              "internalType": "address",
              "name": "to",
              "type": "address"
            },
            {
              "internalType": "uint256",
              "name": "amount",
              "type": "uint256"
            },
            {
              "internalType": "int256",
              "name": "price",
              "type": "int256"
            },
            {
              "internalType": "address",
              "name": "fromToken",
              "type": "address"
            },
            {
              "internalType": "address",
              "name": "toToken",
              "type": "address"
            },
            {
              "internalType": "uint256",
              "name": "toChain",
              "type": "uint256"
            },
            {
              "internalType": "bool",
              "name": "isActive",
              "type": "bool"
            },
            {
              "internalType": "uint256",
              "name": "created",
              "type": "uint256"
            },
            {
              "internalType": "uint256",
              "name": "updated",
              "type": "uint256"
            }
          ],
          "internalType": "struct AutoLimitXSwap.DepositStruct",
          "name": "",
          "type": "tuple"
        }
      ],
      "stateMutability": "view",
      "type": "function"
    },
    {
      "inputs": [
        {
          "internalType": "address",
          "name": "_user",
          "type": "address"
        }
      ],
      "name": "showDepositsOfUser",
      "outputs": [
        {
          "internalType": "uint256[]",
          "name": "",
          "type": "uint256[]"
        }
      ],
      "stateMutability": "view",
      "type": "function"
    },
    {
      "inputs": [
        {
          "internalType": "address",
          "name": "_token",
          "type": "address"
        },
        {
          "internalType": "uint256",
          "name": "amountIn",
          "type": "uint256"
        }
      ],
      "name": "swapExactInputSingle",
      "outputs": [
        {
          "internalType": "uint256",
          "name": "amountOut",
          "type": "uint256"
        }
      ],
      "stateMutability": "nonpayable",
      "type": "function"
    },
    {
      "inputs": [],
      "name": "swapRouter",
      "outputs": [
        {
          "internalType": "contract ISwapRouter",
          "name": "",
          "type": "address"
        }
      ],
      "stateMutability": "view",
      "type": "function"
    },
    {
      "inputs": [
        {
          "internalType": "bytes32",
          "name": "_transferId",
          "type": "bytes32"
        },
        {
          "internalType": "uint256",
          "name": "_amount",
          "type": "uint256"
        },
        {
          "internalType": "address",
          "name": "_asset",
          "type": "address"
        },
        {
          "internalType": "address",
          "name": "_originSender",
          "type": "address"
        },
        {
          "internalType": "uint32",
          "name": "_origin",
          "type": "uint32"
        },
        {
          "internalType": "bytes",
          "name": "_callData",
          "type": "bytes"
        }
      ],
      "name": "xReceive",
      "outputs": [
        {
          "internalType": "bytes",
          "name": "",
          "type": "bytes"
        }
      ],
      "stateMutability": "nonpayable",
      "type": "function"
    },
    {
      "inputs": [
        {
          "internalType": "address",
          "name": "recipient",
          "type": "address"
        },
        {
          "internalType": "uint32",
          "name": "destinationDomain",
          "type": "uint32"
        },
        {
          "internalType": "address",
          "name": "tokenAddress",
          "type": "address"
        },
        {
          "internalType": "uint256",
          "name": "amount",
          "type": "uint256"
        },
        {
          "internalType": "uint256",
          "name": "slippage",
          "type": "uint256"
        },
        {
          "internalType": "uint256",
          "name": "relayerFee",
          "type": "uint256"
        },
        {
          "internalType": "address",
          "name": "_destinationContractAddress",
          "type": "address"
        },
        {
          "internalType": "address",
          "name": "_toToken",
          "type": "address"
        }
      ],
      "name": "xTransfer",
      "outputs": [],
      "stateMutability": "payable",
      "type": "function"
    },
    {
      "stateMutability": "payable",
      "type": "receive"
    }
  ],
  "bytecode": "0x6101006040526000805465ffffffffffff19166427100027101781556005805463ffffffff60a01b191663022de76960a21b179055600781905560088190556009556064600e553480156200005357600080fd5b5060405162003094380380620030948339810160408190526200007691620000e7565b6001600160a01b0395861660805293851660a052600680546001600160a01b0319908116331790915592851660c05290841660e05260028054918516918316919091179055600380549290931691161790556200017b565b6001600160a01b0381168114620000e457600080fd5b50565b60008060008060008060c087890312156200010157600080fd5b86516200010e81620000ce565b60208801519096506200012181620000ce565b60408801519095506200013481620000ce565b60608801519094506200014781620000ce565b60808801519093506200015a81620000ce565b60a08801519092506200016d81620000ce565b809150509295509295509295565b60805160a05160c05160e051612ea0620001f4600039600081816102e301528181611e500152611f180152600081816104130152611e900152600081816105cc0152818161193301528181611a0001528181611ab00152611bb30152600081816106330152818161172701526117e00152612ea06000f3fe6080604052600436106102105760003560e01c8063a235efcb11610117578063caa4654d116100a5578063e76575c01161006c578063e76575c014610688578063e8299ed3146106b5578063f040976c146106d5578063fc17c8fa146106f5578063fd614f411461070b57005b8063caa4654d146105ee578063cbf7848114610601578063de4b054814610621578063e173838d14610655578063e23ed0b51461067557005b8063a96e2423116100e9578063a96e242314610548578063ad5c464814610568578063af23ccc414610588578063b2a1449b146105a4578063c31c9c07146105ba57005b8063a235efcb146104d5578063a26056fc146104e8578063a33f83f014610515578063a5dc83d61461052857005b80635abf43231161019f5780638da5cb5b116101665780638da5cb5b1461044a5780638e15f4731461046a57806391533a8c1461047f578063a035b1fe1461049f578063a0cf0aea146104b557005b80635abf43231461039e5780636b149d87146103b15780636e04ff0d146103d35780637d253aff146104015780638900d7be1461043557005b8063442b1278116101e3578063442b1278146102d15780634585e33b1461030557806356a370eb1461032557806356a90e0214610355578063571733ab1461036857005b806256d134146102195780631d34bee41461024c57806323cf8f9e146102845780633fe8b1aa1461029a57005b3661021757005b005b34801561022557600080fd5b506102396102343660046122fe565b610738565b6040519081526020015b60405180910390f35b34801561025857600080fd5b5060055461026c906001600160a01b031681565b6040516001600160a01b039091168152602001610243565b34801561029057600080fd5b5061023960085481565b3480156102a657600080fd5b506000546102bd906301000000900462ffffff1681565b60405162ffffff9091168152602001610243565b3480156102dd57600080fd5b5061026c7f000000000000000000000000000000000000000000000000000000000000000081565b34801561031157600080fd5b5061021761032036600461232a565b610769565b34801561033157600080fd5b5061034561034036600461239c565b6107b4565b6040519015158152602001610243565b610217610363366004612425565b610b04565b34801561037457600080fd5b5061026c610383366004612508565b600a602052600090815260409020546001600160a01b031681565b6102176103ac366004612521565b610b70565b3480156103bd57600080fd5b506103c6610bbd565b6040516102439190612686565b3480156103df57600080fd5b506103f36103ee36600461232a565b610c9f565b604051610243929190612725565b34801561040d57600080fd5b5061026c7f000000000000000000000000000000000000000000000000000000000000000081565b34801561044157600080fd5b506103c6610d37565b34801561045657600080fd5b5060065461026c906001600160a01b031681565b34801561047657600080fd5b50610239610e36565b34801561048b57600080fd5b5061021761049a366004612740565b610ec5565b3480156104ab57600080fd5b50610239600e5481565b3480156104c157600080fd5b5060035461026c906001600160a01b031681565b6102176104e3366004612765565b610f13565b3480156104f457600080fd5b50610508610503366004612508565b610f7f565b6040516102439190612820565b61021761052336600461282f565b61109b565b34801561053457600080fd5b50610217610543366004612508565b61125f565b34801561055457600080fd5b506102176105633660046128ce565b61128e565b34801561057457600080fd5b5060025461026c906001600160a01b031681565b34801561059457600080fd5b506000546102bd9062ffffff1681565b3480156105b057600080fd5b5061023960015481565b3480156105c657600080fd5b5061026c7f000000000000000000000000000000000000000000000000000000000000000081565b6103456105fc366004612521565b6112da565b34801561060d57600080fd5b5061021761061c3660046128ce565b611680565b34801561062d57600080fd5b5061026c7f000000000000000000000000000000000000000000000000000000000000000081565b34801561066157600080fd5b50610217610670366004612740565b6116cc565b6102176106833660046128eb565b611710565b34801561069457600080fd5b506106a86106a33660046128ce565b611873565b6040516102439190612977565b3480156106c157600080fd5b506102176106d03660046128ce565b6118df565b3480156106e157600080fd5b506102396106f03660046122fe565b61192b565b34801561070157600080fd5b5061023960075481565b34801561071757600080fd5b5061072b6107263660046129c5565b611a80565b6040516102439190612abe565b600b602052816000526040600020818154811061075457600080fd5b90600052602060002001600091509150505481565b60008080808080808080806107808b8d018d612521565b99509950995099509950995099509950995099506107a68a8a8a8a8a8a8a8a8a8a610b70565b505050505050505050505050565b6000828152600a60205260408120546001600160a01b038381169116146108185760405162461bcd60e51b8152602060048201526013602482015272556e617574686f72697a656420656e7469747960681b60448201526064015b60405180910390fd5b60005b600c54811015610a5d5783600c828154811061083957610839612ad1565b90600052602060002090600b02016000015403610a4b576000600c828154811061086557610865612ad1565b90600052602060002090600b020160080160006101000a81548160ff02191690831515021790555042600c82815481106108a1576108a1612ad1565b90600052602060002090600b0201600a0181905550600d600c82815481106108cb576108cb612ad1565b6000918252602080832084546001808201875595855291909320600b9283029093018054929091029092019081558183015492810180546001600160a01b039485166001600160a01b03199182161790915560028084015490830180549186169183169190911790556003808401549083015560048084015490830155600580840154908301805491861691831691909117905560068084015490830180549190951691161790925560078082015490830155600880820154908301805460ff191660ff909216151591909117905560098082015490830155600a90810154910155600c8054829081106109c1576109c1612ad1565b60009182526020808320600b9092029091018281556001810180546001600160a01b031990811690915560028201805482169055600382018490556004820184905560058201805482169055600682018054821690556007820184905560088201805460ff1916905560098201849055600a91820184905587845291526040909120805490911690555b80610a5581612afd565b91505061081b565b50610a688284611c40565b60088054906000610a7883612afd565b909155505060078054906000610a8d83612b16565b90915550506040516e11195c1bdcda5d0811115311551151608a1b81526001600160a01b03831690600f0160408051918290038220600083524260208401529186917fa5a5bd98656058fc95e51c484e0ff0e44860d2f24b8b3be493e84bf30af1efb7910160405180910390a45060015b92915050565b60005b888110156107a657610b5e8c8c8c8c85818110610b2657610b26612ad1565b905060200201358b8b86818110610b3f57610b3f612ad1565b9050602002016020810190610b5491906128ce565b8a8a8a8a8a61109b565b80610b6881612afd565b915050610b07565b86600e5413610ba057600e546040516318050f9b60e11b815260048101919091526024810188905260440161080f565b610bb18a8a8a89898989898961109b565b50505050505050505050565b6060600c805480602002602001604051908101604052809291908181526020016000905b82821015610c965760008481526020908190206040805161016081018252600b8602909201805483526001808201546001600160a01b0390811685870152600283015481169385019390935260038201546060850152600482015460808501526005820154831660a0850152600682015490921660c0840152600781015460e0840152600881015460ff1615156101008401526009810154610120840152600a01546101408301529083529092019101610be1565b50505050905090565b6000606081808080808080808080610cb98d8f018f612521565b995099509950995099509950995099509950995086600e5412159b508b8e8e81818080601f016020809104026020016040519081016040528093929190818152602001838380828437600081840152601f19601f82011690508083019250505050505050905090509b509b50505050505050505050505b9250929050565b6006546060906001600160a01b03163314610d645760405162461bcd60e51b815260040161080f90612b2d565b600d80546040805160208084028201810190925282815292919060009084018215610c965760008481526020908190206040805161016081018252600b8602909201805483526001808201546001600160a01b0390811685870152600283015481169385019390935260038201546060850152600482015460808501526005820154831660a0850152600682015490921660c0840152600781015460e0840152600881015460ff1615156101008401526009810154610120840152600a01546101408301529083529092019101610be1565b600080600080600080600460009054906101000a90046001600160a01b03166001600160a01b031663feaf968c6040518163ffffffff1660e01b815260040160a060405180830381865afa158015610e92573d6000803e3d6000fd5b505050506040513d601f19601f82011682018060405250810190610eb69190612b74565b50919998505050505050505050565b6006546001600160a01b03163314610eef5760405162461bcd60e51b815260040161080f90612b2d565b6000805462ffffff90921663010000000265ffffff00000019909216919091179055565b60005b888110156107a657610f6d8c8c8c8c85818110610f3557610f35612ad1565b905060200201358b8b8b87818110610f4f57610f4f612ad1565b9050602002016020810190610f6491906128ce565b8a8a8a8a61109b565b80610f7781612afd565b915050610f16565b610f87612256565b610f8f612256565b60005b600c548110156110945783600c8281548110610fb057610fb0612ad1565b90600052602060002090600b0201600001540361108257600c8181548110610fda57610fda612ad1565b60009182526020918290206040805161016081018252600b9093029091018054835260018101546001600160a01b0390811694840194909452600281015484169183019190915260038101546060830152600481015460808301526005810154831660a0830152600681015490921660c0820152600782015460e0820152600882015460ff1615156101008201526009820154610120820152600a9091015461014082015291505b8061108c81612afd565b915050610f92565b5092915050565b600087116110eb5760405162461bcd60e51b815260206004820152601d60248201527f416d6f756e74206d7573742062652067726561746572207468616e2030000000604482015260640161080f565b846001600160a01b0316866001600160a01b0316036111585760405162461bcd60e51b8152602060048201526024808201527f46726f6d20616e6420546f20746f6b656e73206d7573742062652064696666656044820152631c995b9d60e21b606482015260840161080f565b600084116111a85760405162461bcd60e51b815260206004820152601f60248201527f546f20636861696e206d7573742062652067726561746572207468616e203000604482015260640161080f565b61012c60006111b7888a61192b565b6002549091506111d8908b9087906001600160a01b0316848689898e611710565b6040517f4465706f7369742043524541544544202620455845435554454400000000000081526001600160a01b038c1690601a016040805191829003822060095460018452426020850152909290917fa5a5bd98656058fc95e51c484e0ff0e44860d2f24b8b3be493e84bf30af1efb7910160405180910390a45050505050505050505050565b6006546001600160a01b031633146112895760405162461bcd60e51b815260040161080f90612b2d565b600e55565b6006546001600160a01b031633146112b85760405162461bcd60e51b815260040161080f90612b2d565b600280546001600160a01b0319166001600160a01b0392909216919091179055565b60098054600091826112eb83612afd565b91905055508a600a6000600954815260200190815260200160002060006101000a8154816001600160a01b0302191690836001600160a01b03160217905550600b60008c6001600160a01b03166001600160a01b0316815260200190815260200160002060095490806001815401808255809150506001900390600052602060002001600090919091909150556007600081548092919061138b90612afd565b91905055506113a28b8b8b8b8b8b8b8b8b8b611d2a565b50604080516101608101825260095481526001600160a01b038d8116602083018181528e8316848601908152606085018f8152608086018f81528e861660a088019081528e871660c0890190815260e089018f815260016101008b01818152426101208d018181526101408e01918252600c805494850181556000529c517fdf6966c971051c3d54ec59162606531493a51404a002842f56009d7e5cf4a8c7600b9094029384015598517fdf6966c971051c3d54ec59162606531493a51404a002842f56009d7e5cf4a8c8830180546001600160a01b0319908116928e1692909217905597517fdf6966c971051c3d54ec59162606531493a51404a002842f56009d7e5cf4a8c9830180548a16918d1691909117905595517fdf6966c971051c3d54ec59162606531493a51404a002842f56009d7e5cf4a8ca82015593517fdf6966c971051c3d54ec59162606531493a51404a002842f56009d7e5cf4a8cb85015591517fdf6966c971051c3d54ec59162606531493a51404a002842f56009d7e5cf4a8cc840180548716918a16919091179055517fdf6966c971051c3d54ec59162606531493a51404a002842f56009d7e5cf4a8cd8301805490951697169690961790925593517fdf6966c971051c3d54ec59162606531493a51404a002842f56009d7e5cf4a8ce82015592517fdf6966c971051c3d54ec59162606531493a51404a002842f56009d7e5cf4a8cf8401805460ff191691151591909117905592517fdf6966c971051c3d54ec59162606531493a51404a002842f56009d7e5cf4a8d083015591517fdf6966c971051c3d54ec59162606531493a51404a002842f56009d7e5cf4a8d19091015590516e11195c1bdcda5d0810d49150551151608a1b8152600f016040805191829003822060095460018452426020850152909290917fa5a5bd98656058fc95e51c484e0ff0e44860d2f24b8b3be493e84bf30af1efb7910160405180910390a45060019a9950505050505050505050565b6006546001600160a01b031633146116aa5760405162461bcd60e51b815260040161080f90612b2d565b600380546001600160a01b0319166001600160a01b0392909216919091179055565b6006546001600160a01b031633146116f65760405162461bcd60e51b815260040161080f90612b2d565b6000805462ffffff191662ffffff92909216919091179055565b60405163095ea7b360e01b81526001600160a01b037f0000000000000000000000000000000000000000000000000000000000000000811660048301526024820187905287919082169063095ea7b3906044016020604051808303816000875af1158015611782573d6000803e3d6000fd5b505050506040513d601f19601f820116820180604052508101906117a69190612bc4565b50604080516001600160a01b038b811660208301528481168284015282518083038401815260608301938490526345560b5d60e11b9093527f00000000000000000000000000000000000000000000000000000000000000001690638aac16ba908790611823908d9089908e9033908f908f908b90606401612be6565b60206040518083038185885af1158015611841573d6000803e3d6000fd5b50505050506040513d601f19601f820116820180604052508101906118669190612c41565b5050505050505050505050565b6001600160a01b0381166000908152600b60209081526040918290208054835181840281018401909452808452606093928301828280156118d357602002820191906000526020600020905b8154815260200190600101908083116118bf575b50505050509050919050565b6006546001600160a01b031633146119095760405162461bcd60e51b815260040161080f90612b2d565b600580546001600160a01b0319166001600160a01b0392909216919091179055565b6000611958837f000000000000000000000000000000000000000000000000000000000000000084611fa2565b6040805160a081018252600080546003546002546bffffffffffffffffffffffff1960608a811b821660c08801526001600160e81b031960e886811b821660d48a015294821b831660d7890152630100000090950490931b90931660eb860152811b90911660ee840152835180840360e2018152610102840185528352306020840152428385015282018590526080820152905163c04b8d5960e01b81526001600160a01b037f0000000000000000000000000000000000000000000000000000000000000000169063c04b8d5990611a35908490600401612c5a565b6020604051808303816000875af1158015611a54573d6000803e3d6000fd5b505050506040513d601f19601f82011682018060405250810190611a789190612c41565b949350505050565b606060008083806020019051810190611a999190612cb2565b6002549193509150611ad5906001600160a01b03167f00000000000000000000000000000000000000000000000000000000000000008a611fa2565b60408051610100810182526002546001600160a01b0390811682528381166020830152600080546301000000900462ffffff16938301939093528416606082015260808101611b2642610e10612ce1565b815260208082018c9052600060408084018290526060938401829052805163414bf38960e01b815285516001600160a01b03908116600483015293860151841660248201529085015162ffffff16604482015292840151821660648401526080840151608484015260a084015160a484015260c084015160c484015260e0840151821660e48401529293507f0000000000000000000000000000000000000000000000000000000000000000169063414bf38990610104016020604051808303816000875af1158015611bfd573d6000803e3d6000fd5b505050506040513d601f19601f82011682018060405250810190611c219190612c41565b50506040805160208101909152600081529a9950505050505050505050565b6001600160a01b0382166000908152600b60205260409020548110611c6457600080fd5b6001600160a01b0382166000908152600b602052604090208054611c8a90600190612cf4565b81548110611c9a57611c9a612ad1565b9060005260206000200154600b6000846001600160a01b03166001600160a01b031681526020019081526020016000208281548110611cdb57611cdb612ad1565b60009182526020808320909101929092556001600160a01b0384168152600b90915260409020805480611d1057611d10612d07565b600190038181906000526020600020016000905590555050565b604080516001600160a01b038c811660208301528b811682840152606082018b9052608082018a905288811660a083015287811660c083015260e0820187905263ffffffff861661010083015261012082018590528316610140808301919091528251808303909101815261026082019092526000919082906101600180611db18f6120a2565b604051602001611dc19190612d1d565b60408051808303601f1901815291815290825280518082018252600280825261060f60f31b60208084018290528086019390935230858501819052620f42406060870152608086015260a08501889052835180850185529182529181019190915260c083015267016345785d8a000060e09283015290820151905163095ea7b360e01b81526001600160a01b037f0000000000000000000000000000000000000000000000000000000000000000811660048301526bffffffffffffffffffffffff90921660248201529192507f0000000000000000000000000000000000000000000000000000000000000000169063095ea7b3906044016020604051808303816000875af1158015611ed9573d6000803e3d6000fd5b505050506040513d601f19601f82011682018060405250810190611efd9190612bc4565b5060405163022de76960e21b81526000906001600160a01b037f000000000000000000000000000000000000000000000000000000000000000016906308b79da490611f4d908590600401612d4f565b6020604051808303816000875af1158015611f6c573d6000803e3d6000fd5b505050506040513d601f19601f82011682018060405250810190611f909190612c41565b9e9d5050505050505050505050505050565b604080516001600160a01b038481166024830152604480830185905283518084039091018152606490920183526020820180516001600160e01b031663095ea7b360e01b1790529151600092839290871691611ffe9190612e37565b6000604051808303816000865af19150503d806000811461203b576040519150601f19603f3d011682016040523d82523d6000602084013e612040565b606091505b509150915081801561206a57508051158061206a57508080602001905181019061206a9190612bc4565b61209b5760405162461bcd60e51b8152602060048201526002602482015261534160f01b604482015260640161080f565b5050505050565b6060610afe6001600160a01b0383166014606060006120c2836002612e53565b6120cd906002612ce1565b67ffffffffffffffff8111156120e5576120e56129af565b6040519080825280601f01601f19166020018201604052801561210f576020820181803683370190505b509050600360fc1b8160008151811061212a5761212a612ad1565b60200101906001600160f81b031916908160001a905350600f60fb1b8160018151811061215957612159612ad1565b60200101906001600160f81b031916908160001a905350600061217d846002612e53565b612188906001612ce1565b90505b6001811115612200576f181899199a1a9b1b9c1cb0b131b232b360811b85600f16601081106121bc576121bc612ad1565b1a60f81b8282815181106121d2576121d2612ad1565b60200101906001600160f81b031916908160001a90535060049490941c936121f981612b16565b905061218b565b50831561224f5760405162461bcd60e51b815260206004820181905260248201527f537472696e67733a20686578206c656e67746820696e73756666696369656e74604482015260640161080f565b9392505050565b6040518061016001604052806000815260200160006001600160a01b0316815260200160006001600160a01b03168152602001600081526020016000815260200160006001600160a01b0316815260200160006001600160a01b031681526020016000815260200160001515815260200160008152602001600081525090565b6001600160a01b03811681146122eb57600080fd5b50565b80356122f9816122d6565b919050565b6000806040838503121561231157600080fd5b823561231c816122d6565b946020939093013593505050565b6000806020838503121561233d57600080fd5b823567ffffffffffffffff8082111561235557600080fd5b818501915085601f83011261236957600080fd5b81358181111561237857600080fd5b86602082850101111561238a57600080fd5b60209290920196919550909350505050565b600080604083850312156123af57600080fd5b8235915060208301356123c1816122d6565b809150509250929050565b60008083601f8401126123de57600080fd5b50813567ffffffffffffffff8111156123f657600080fd5b6020830191508360208260051b8501011115610d3057600080fd5b803563ffffffff811681146122f957600080fd5b60008060008060008060008060008060006101208c8e03121561244757600080fd5b6124518c356122d6565b8b359a5061246260208d01356122d6565b60208c0135995067ffffffffffffffff8060408e0135111561248357600080fd5b6124938e60408f01358f016123cc565b909a50985060608d01358110156124a957600080fd5b506124ba8d60608e01358e016123cc565b90975095506124cb60808d016122ee565b945060a08c013593506124e060c08d01612411565b925060e08c013591506124f66101008d016122ee565b90509295989b509295989b9093969950565b60006020828403121561251a57600080fd5b5035919050565b6000806000806000806000806000806101408b8d03121561254157600080fd5b8a3561254c816122d6565b995060208b013561255c816122d6565b985060408b0135975060608b0135965060808b013561257a816122d6565b955060a08b013561258a816122d6565b945060c08b0135935061259f60e08c01612411565b92506101008b013591506101208b01356125b8816122d6565b809150509295989b9194979a5092959850565b8051825260208101516125e960208401826001600160a01b03169052565b50604081015161260460408401826001600160a01b03169052565b50606081015160608301526080810151608083015260a081015161263360a08401826001600160a01b03169052565b5060c081015161264e60c08401826001600160a01b03169052565b5060e081015160e08301526101008082015161266d8285018215159052565b5050610120818101519083015261014090810151910152565b6020808252825182820181905260009190848201906040850190845b818110156126c9576126b58385516125cb565b9284019261016092909201916001016126a2565b50909695505050505050565b60005b838110156126f05781810151838201526020016126d8565b50506000910152565b600081518084526127118160208601602086016126d5565b601f01601f19169290920160200192915050565b8215158152604060208201526000611a7860408301846126f9565b60006020828403121561275257600080fd5b813562ffffff8116811461224f57600080fd5b60008060008060008060008060008060006101208c8e03121561278757600080fd5b6127918c356122d6565b8b359a506127a260208d01356122d6565b60208c0135995067ffffffffffffffff8060408e013511156127c357600080fd5b6127d38e60408f01358f016123cc565b909a5098506127e460608e016122ee565b97508060808e013511156127f757600080fd5b506128088d60808e01358e016123cc565b909650945060a08c013593506124e060c08d01612411565b6101608101610afe82846125cb565b60008060008060008060008060006101208a8c03121561284e57600080fd5b8935612859816122d6565b985060208a0135612869816122d6565b975060408a0135965060608a0135612880816122d6565b955060808a0135612890816122d6565b945060a08a013593506128a560c08b01612411565b925060e08a013591506101008a01356128bd816122d6565b809150509295985092959850929598565b6000602082840312156128e057600080fd5b813561224f816122d6565b600080600080600080600080610100898b03121561290857600080fd5b8835612913816122d6565b975061292160208a01612411565b96506040890135612931816122d6565b9550606089013594506080890135935060a0890135925060c0890135612956816122d6565b915060e0890135612966816122d6565b809150509295985092959890939650565b6020808252825182820181905260009190848201906040850190845b818110156126c957835183529284019291840191600101612993565b634e487b7160e01b600052604160045260246000fd5b60008060008060008060c087890312156129de57600080fd5b863595506020870135945060408701356129f7816122d6565b93506060870135612a07816122d6565b9250612a1560808801612411565b915060a087013567ffffffffffffffff80821115612a3257600080fd5b818901915089601f830112612a4657600080fd5b813581811115612a5857612a586129af565b604051601f8201601f19908116603f01168101908382118183101715612a8057612a806129af565b816040528281528c6020848701011115612a9957600080fd5b8260208601602083013760006020848301015280955050505050509295509295509295565b60208152600061224f60208301846126f9565b634e487b7160e01b600052603260045260246000fd5b634e487b7160e01b600052601160045260246000fd5b600060018201612b0f57612b0f612ae7565b5060010190565b600081612b2557612b25612ae7565b506000190190565b6020808252601390820152724f776e6572207265736572766564206f6e6c7960681b604082015260600190565b805169ffffffffffffffffffff811681146122f957600080fd5b600080600080600060a08688031215612b8c57600080fd5b612b9586612b5a565b9450602086015193506040860151925060608601519150612bb860808701612b5a565b90509295509295909350565b600060208284031215612bd657600080fd5b8151801515811461224f57600080fd5b63ffffffff881681526001600160a01b0387811660208301528681166040830152851660608201526080810184905260a0810183905260e060c08201819052600090612c34908301846126f9565b9998505050505050505050565b600060208284031215612c5357600080fd5b5051919050565b602081526000825160a06020840152612c7660c08401826126f9565b905060018060a01b0360208501511660408401526040840151606084015260608401516080840152608084015160a08401528091505092915050565b60008060408385031215612cc557600080fd5b8251612cd0816122d6565b60208401519092506123c1816122d6565b80820180821115610afe57610afe612ae7565b81810381811115610afe57610afe612ae7565b634e487b7160e01b600052603160045260246000fd5b692634b6b4ba27b93232b960b11b815260008251612d4281600a8501602087016126d5565b91909101600a0192915050565b6020815260008251610100806020850152612d6e6101208501836126f9565b91506020850151601f1980868503016040870152612d8c84836126f9565b935060408701519150612daa60608701836001600160a01b03169052565b606087015163ffffffff81166080880152915060808701516001600160a01b03811660a0880152915060a08701519150808685030160c0870152612dee84836126f9565b935060c08701519150808685030160e087015250612e0c83826126f9565b92505060e0850151612e2d828601826bffffffffffffffffffffffff169052565b5090949350505050565b60008251612e498184602087016126d5565b9190910192915050565b8082028115828204841417610afe57610afe612ae756fea264697066735822122036dc46d12cda2551bddb60bf0144d53eb2b80c591675e1d6335f2241c8c6896c64736f6c63430008110033",
  "linkReferences": {},
  "deployedLinkReferences": {}
}